{
  "fileName": "CovidCredentialRegistry.sol",
  "contractName": "CovidCredentialRegistry",
  "source": "pragma solidity ^0.5.0;\n\nimport \"@openzeppelin/contracts-ethereum-package/contracts/access/roles/WhitelistedRole.sol\";\nimport \"./ICredentialRegistry.sol\";\n\ncontract CovidCredentialRegistry is ICredentialRegistry, WhitelistedRole {\n\n  mapping (bytes32 => mapping (address => CovidMetadata)) credentials;\n\n  function register(bytes32 hash, bytes32 subjectId, uint startDate, uint exp, Sex sex, uint8 age, bytes6 geoHash, CovidCode credentialType, InterruptionReason reason) onlyWhitelisted external returns(bool) {\n    CovidMetadata storage credential = credentials[hash][msg.sender];\n    require(credential.subjectId==0,\"Credential ID already exists\");\n\n    credential.subjectId = subjectId;\n    credential.startDate = startDate;\n    credential.iat = now*1000;\n    credential.exp = exp;\n    credential.sex = sex;\n    credential.age = age;\n    credential.geoHash = geoHash;\n    credential.credentialType = credentialType;\n    credential.reason = reason;\n    credential.status = true;\n    credentials[hash][msg.sender] = credential;\n    emit CredentialRegistered(hash, msg.sender, subjectId, startDate, credential.iat, sex, geoHash, credentialType, reason);\n    return true;\n  }\n\n  function revoke(bytes32 hash) onlyWhitelisted external returns(bool) {\n    CovidMetadata storage credential = credentials[hash][msg.sender];\n\n    require(credential.subjectId!=0, \"credential hash doesn't exist\");\n    require(credential.status, \"Credential is already revoked\");  \n     \n    credential.status = false;  \n    credentials[hash][msg.sender] = credential;\n    emit CredentialRevoked(hash, msg.sender, now);\n    return true;\n  }\n  \n  function verify(bytes32 hash, address citizen) external view returns(bool isValid){\n    CovidMetadata memory credential = credentials[hash][citizen];\n    require(credential.subjectId!=0,\"Credential hash doesn't exist\");\n    return credential.status;\n  }\n}",
  "sourcePath": "contracts/CovidCredentialRegistry.sol",
  "abi": [
    {
      "anonymous": false,
      "inputs": [
        {
          "indexed": true,
          "internalType": "bytes32",
          "name": "hash",
          "type": "bytes32"
        },
        {
          "indexed": false,
          "internalType": "address",
          "name": "by",
          "type": "address"
        },
        {
          "indexed": false,
          "internalType": "bytes32",
          "name": "id",
          "type": "bytes32"
        },
        {
          "indexed": false,
          "internalType": "uint256",
          "name": "startDate",
          "type": "uint256"
        },
        {
          "indexed": false,
          "internalType": "uint256",
          "name": "iat",
          "type": "uint256"
        },
        {
          "indexed": false,
          "internalType": "enum ICredentialRegistry.Sex",
          "name": "sex",
          "type": "uint8"
        },
        {
          "indexed": false,
          "internalType": "bytes6",
          "name": "geoHash",
          "type": "bytes6"
        },
        {
          "indexed": false,
          "internalType": "enum ICredentialRegistry.CovidCode",
          "name": "credentialType",
          "type": "uint8"
        },
        {
          "indexed": false,
          "internalType": "enum ICredentialRegistry.InterruptionReason",
          "name": "reason",
          "type": "uint8"
        }
      ],
      "name": "CredentialRegistered",
      "type": "event"
    },
    {
      "anonymous": false,
      "inputs": [
        {
          "indexed": true,
          "internalType": "bytes32",
          "name": "hash",
          "type": "bytes32"
        },
        {
          "indexed": false,
          "internalType": "address",
          "name": "by",
          "type": "address"
        },
        {
          "indexed": false,
          "internalType": "uint256",
          "name": "date",
          "type": "uint256"
        }
      ],
      "name": "CredentialRevoked",
      "type": "event"
    },
    {
      "anonymous": false,
      "inputs": [
        {
          "indexed": true,
          "internalType": "address",
          "name": "account",
          "type": "address"
        }
      ],
      "name": "WhitelistAdminAdded",
      "type": "event"
    },
    {
      "anonymous": false,
      "inputs": [
        {
          "indexed": true,
          "internalType": "address",
          "name": "account",
          "type": "address"
        }
      ],
      "name": "WhitelistAdminRemoved",
      "type": "event"
    },
    {
      "anonymous": false,
      "inputs": [
        {
          "indexed": true,
          "internalType": "address",
          "name": "account",
          "type": "address"
        }
      ],
      "name": "WhitelistedAdded",
      "type": "event"
    },
    {
      "anonymous": false,
      "inputs": [
        {
          "indexed": true,
          "internalType": "address",
          "name": "account",
          "type": "address"
        }
      ],
      "name": "WhitelistedRemoved",
      "type": "event"
    },
    {
      "constant": false,
      "inputs": [
        {
          "internalType": "address",
          "name": "account",
          "type": "address"
        }
      ],
      "name": "addWhitelistAdmin",
      "outputs": [],
      "payable": false,
      "stateMutability": "nonpayable",
      "type": "function"
    },
    {
      "constant": false,
      "inputs": [
        {
          "internalType": "address",
          "name": "account",
          "type": "address"
        }
      ],
      "name": "addWhitelisted",
      "outputs": [],
      "payable": false,
      "stateMutability": "nonpayable",
      "type": "function"
    },
    {
      "constant": false,
      "inputs": [
        {
          "internalType": "address",
          "name": "sender",
          "type": "address"
        }
      ],
      "name": "initialize",
      "outputs": [],
      "payable": false,
      "stateMutability": "nonpayable",
      "type": "function"
    },
    {
      "constant": true,
      "inputs": [
        {
          "internalType": "address",
          "name": "account",
          "type": "address"
        }
      ],
      "name": "isWhitelistAdmin",
      "outputs": [
        {
          "internalType": "bool",
          "name": "",
          "type": "bool"
        }
      ],
      "payable": false,
      "stateMutability": "view",
      "type": "function"
    },
    {
      "constant": true,
      "inputs": [
        {
          "internalType": "address",
          "name": "account",
          "type": "address"
        }
      ],
      "name": "isWhitelisted",
      "outputs": [
        {
          "internalType": "bool",
          "name": "",
          "type": "bool"
        }
      ],
      "payable": false,
      "stateMutability": "view",
      "type": "function"
    },
    {
      "constant": false,
      "inputs": [
        {
          "internalType": "bytes32",
          "name": "hash",
          "type": "bytes32"
        },
        {
          "internalType": "bytes32",
          "name": "subjectId",
          "type": "bytes32"
        },
        {
          "internalType": "uint256",
          "name": "startDate",
          "type": "uint256"
        },
        {
          "internalType": "uint256",
          "name": "exp",
          "type": "uint256"
        },
        {
          "internalType": "enum ICredentialRegistry.Sex",
          "name": "sex",
          "type": "uint8"
        },
        {
          "internalType": "uint8",
          "name": "age",
          "type": "uint8"
        },
        {
          "internalType": "bytes6",
          "name": "geoHash",
          "type": "bytes6"
        },
        {
          "internalType": "enum ICredentialRegistry.CovidCode",
          "name": "credentialType",
          "type": "uint8"
        },
        {
          "internalType": "enum ICredentialRegistry.InterruptionReason",
          "name": "reason",
          "type": "uint8"
        }
      ],
      "name": "register",
      "outputs": [
        {
          "internalType": "bool",
          "name": "",
          "type": "bool"
        }
      ],
      "payable": false,
      "stateMutability": "nonpayable",
      "type": "function"
    },
    {
      "constant": false,
      "inputs": [
        {
          "internalType": "address",
          "name": "account",
          "type": "address"
        }
      ],
      "name": "removeWhitelisted",
      "outputs": [],
      "payable": false,
      "stateMutability": "nonpayable",
      "type": "function"
    },
    {
      "constant": false,
      "inputs": [],
      "name": "renounceWhitelistAdmin",
      "outputs": [],
      "payable": false,
      "stateMutability": "nonpayable",
      "type": "function"
    },
    {
      "constant": false,
      "inputs": [],
      "name": "renounceWhitelisted",
      "outputs": [],
      "payable": false,
      "stateMutability": "nonpayable",
      "type": "function"
    },
    {
      "constant": false,
      "inputs": [
        {
          "internalType": "bytes32",
          "name": "hash",
          "type": "bytes32"
        }
      ],
      "name": "revoke",
      "outputs": [
        {
          "internalType": "bool",
          "name": "",
          "type": "bool"
        }
      ],
      "payable": false,
      "stateMutability": "nonpayable",
      "type": "function"
    },
    {
      "constant": true,
      "inputs": [
        {
          "internalType": "bytes32",
          "name": "hash",
          "type": "bytes32"
        },
        {
          "internalType": "address",
          "name": "citizen",
          "type": "address"
        }
      ],
      "name": "verify",
      "outputs": [
        {
          "internalType": "bool",
          "name": "isValid",
          "type": "bool"
        }
      ],
      "payable": false,
      "stateMutability": "view",
      "type": "function"
    }
  ],
  "bytecode": "0x6080604052611890806100136000396000f3fe608060405234801561001057600080fd5b50600436106100a95760003560e01c8063b75c7dc611610071578063b75c7dc6146101e0578063b88fbd2d14610226578063bb5f747b1461028c578063c4d66de8146102e8578063d2ae498d1461032c578063d6cd9473146103ec576100a9565b806310154bad146100ae578063291d9549146100f25780633af32abf146101365780634c5a628c146101925780637362d9c81461019c575b600080fd5b6100f0600480360360208110156100c457600080fd5b81019080803573ffffffffffffffffffffffffffffffffffffffff1690602001909291905050506103f6565b005b6101346004803603602081101561010857600080fd5b81019080803573ffffffffffffffffffffffffffffffffffffffff169060200190929190505050610467565b005b6101786004803603602081101561014c57600080fd5b81019080803573ffffffffffffffffffffffffffffffffffffffff1690602001909291905050506104d8565b604051808215151515815260200191505060405180910390f35b61019a6104f5565b005b6101de600480360360208110156101b257600080fd5b81019080803573ffffffffffffffffffffffffffffffffffffffff169060200190929190505050610507565b005b61020c600480360360208110156101f657600080fd5b8101908080359060200190929190505050610578565b604051808215151515815260200191505060405180910390f35b6102726004803603604081101561023c57600080fd5b8101908080359060200190929190803573ffffffffffffffffffffffffffffffffffffffff169060200190929190505050610973565b604051808215151515815260200191505060405180910390f35b6102ce600480360360208110156102a257600080fd5b81019080803573ffffffffffffffffffffffffffffffffffffffff169060200190929190505050610b9f565b604051808215151515815260200191505060405180910390f35b61032a600480360360208110156102fe57600080fd5b81019080803573ffffffffffffffffffffffffffffffffffffffff169060200190929190505050610bbc565b005b6103d2600480360361012081101561034357600080fd5b8101908080359060200190929190803590602001909291908035906020019092919080359060200190929190803560ff169060200190929190803560ff169060200190929190803579ffffffffffffffffffffffffffffffffffffffffffffffffffff19169060200190929190803560ff169060200190929190803560ff169060200190929190505050610cc5565b604051808215151515815260200191505060405180910390f35b6103f46111b1565b005b6104066104016111c3565b610b9f565b61045b576040517f08c379a00000000000000000000000000000000000000000000000000000000081526004018080602001828103825260408152602001806117e26040913960400191505060405180910390fd5b610464816111cb565b50565b6104776104726111c3565b610b9f565b6104cc576040517f08c379a00000000000000000000000000000000000000000000000000000000081526004018080602001828103825260408152602001806117e26040913960400191505060405180910390fd5b6104d581611225565b50565b60006104ee82606661127f90919063ffffffff16565b9050919050565b6105056105006111c3565b61135d565b565b6105176105126111c3565b610b9f565b61056c576040517f08c379a00000000000000000000000000000000000000000000000000000000081526004018080602001828103825260408152602001806117e26040913960400191505060405180910390fd5b610575816113b7565b50565b600061058a6105856111c3565b6104d8565b6105df576040517f08c379a000000000000000000000000000000000000000000000000000000000815260040180806020018281038252603a815260200180611822603a913960400191505060405180910390fd5b60006099600084815260200190815260200160002060003373ffffffffffffffffffffffffffffffffffffffff1673ffffffffffffffffffffffffffffffffffffffff16815260200190815260200160002090506000801b816000015414156106b0576040517f08c379a000000000000000000000000000000000000000000000000000000000815260040180806020018281038252601d8152602001807f63726564656e7469616c206861736820646f65736e277420657869737400000081525060200191505060405180910390fd5b80600401600a9054906101000a900460ff16610734576040517f08c379a000000000000000000000000000000000000000000000000000000000815260040180806020018281038252601d8152602001807f43726564656e7469616c20697320616c7265616479207265766f6b656400000081525060200191505060405180910390fd5b600081600401600a6101000a81548160ff021916908315150217905550806099600085815260200190815260200160002060003373ffffffffffffffffffffffffffffffffffffffff1673ffffffffffffffffffffffffffffffffffffffff168152602001908152602001600020600082015481600001556001820154816001015560028201548160020155600382015481600301556004820160009054906101000a900460ff168160040160006101000a81548160ff021916908360038111156107fb57fe5b02179055506004820160019054906101000a900460ff168160040160016101000a81548160ff021916908360ff1602179055506004820160029054906101000a900460d01b8160040160026101000a81548165ffffffffffff021916908360d01c02179055506004820160089054906101000a900460ff168160040160086101000a81548160ff0219169083600481111561089257fe5b02179055506004820160099054906101000a900460ff168160040160096101000a81548160ff021916908360078111156108c857fe5b021790555060048201600a9054906101000a900460ff1681600401600a6101000a81548160ff021916908315150217905550905050827f80d4746828447d65eceb938c7f9d85fbeb232fe7819d5209ed452b3940f8904b3342604051808373ffffffffffffffffffffffffffffffffffffffff1673ffffffffffffffffffffffffffffffffffffffff1681526020018281526020019250505060405180910390a26001915050919050565b600061097d6116d7565b6099600085815260200190815260200160002060008473ffffffffffffffffffffffffffffffffffffffff1673ffffffffffffffffffffffffffffffffffffffff16815260200190815260200160002060405180610140016040529081600082015481526020016001820154815260200160028201548152602001600382015481526020016004820160009054906101000a900460ff166003811115610a1f57fe5b6003811115610a2a57fe5b81526020016004820160019054906101000a900460ff1660ff1660ff1681526020016004820160029054906101000a900460d01b79ffffffffffffffffffffffffffffffffffffffffffffffffffff191679ffffffffffffffffffffffffffffffffffffffffffffffffffff191681526020016004820160089054906101000a900460ff166004811115610aba57fe5b6004811115610ac557fe5b81526020016004820160099054906101000a900460ff166007811115610ae757fe5b6007811115610af257fe5b815260200160048201600a9054906101000a900460ff16151515158152505090506000801b81600001511415610b90576040517f08c379a000000000000000000000000000000000000000000000000000000000815260040180806020018281038252601d8152602001807f43726564656e7469616c206861736820646f65736e277420657869737400000081525060200191505060405180910390fd5b80610120015191505092915050565b6000610bb582603361127f90919063ffffffff16565b9050919050565b600060019054906101000a900460ff1680610bdb5750610bda611411565b5b80610bf257506000809054906101000a900460ff16155b610c47576040517f08c379a000000000000000000000000000000000000000000000000000000000815260040180806020018281038252602e8152602001806117b4602e913960400191505060405180910390fd5b60008060019054906101000a900460ff161590508015610c97576001600060016101000a81548160ff02191690831515021790555060016000806101000a81548160ff0219169083151502179055505b610ca082611428565b8015610cc15760008060016101000a81548160ff0219169083151502179055505b5050565b6000610cd7610cd26111c3565b6104d8565b610d2c576040517f08c379a000000000000000000000000000000000000000000000000000000000815260040180806020018281038252603a815260200180611822603a913960400191505060405180910390fd5b6000609960008c815260200190815260200160002060003373ffffffffffffffffffffffffffffffffffffffff1673ffffffffffffffffffffffffffffffffffffffff16815260200190815260200160002090506000801b816000015414610dfc576040517f08c379a000000000000000000000000000000000000000000000000000000000815260040180806020018281038252601c8152602001807f43726564656e7469616c20494420616c7265616479206578697374730000000081525060200191505060405180910390fd5b8981600001819055508881600101819055506103e842028160020181905550878160030181905550868160040160006101000a81548160ff02191690836003811115610e4457fe5b0217905550858160040160016101000a81548160ff021916908360ff160217905550848160040160026101000a81548165ffffffffffff021916908360d01c0217905550838160040160086101000a81548160ff02191690836004811115610ea857fe5b0217905550828160040160096101000a81548160ff02191690836007811115610ecd57fe5b0217905550600181600401600a6101000a81548160ff02191690831515021790555080609960008d815260200190815260200160002060003373ffffffffffffffffffffffffffffffffffffffff1673ffffffffffffffffffffffffffffffffffffffff168152602001908152602001600020600082015481600001556001820154816001015560028201548160020155600382015481600301556004820160009054906101000a900460ff168160040160006101000a81548160ff02191690836003811115610f9957fe5b02179055506004820160019054906101000a900460ff168160040160016101000a81548160ff021916908360ff1602179055506004820160029054906101000a900460d01b8160040160026101000a81548165ffffffffffff021916908360d01c02179055506004820160089054906101000a900460ff168160040160086101000a81548160ff0219169083600481111561103057fe5b02179055506004820160099054906101000a900460ff168160040160096101000a81548160ff0219169083600781111561106657fe5b021790555060048201600a9054906101000a900460ff1681600401600a6101000a81548160ff0219169083151502179055509050508a7fb63f373d7241d415ff725faa8c7def04dee5b4bd089fb60925610470fbedbaa4338c8c85600201548c8b8b8b604051808973ffffffffffffffffffffffffffffffffffffffff1673ffffffffffffffffffffffffffffffffffffffff16815260200188815260200187815260200186815260200185600381111561111d57fe5b60ff1681526020018479ffffffffffffffffffffffffffffffffffffffffffffffffffff191679ffffffffffffffffffffffffffffffffffffffffffffffffffff1916815260200183600481111561117157fe5b60ff16815260200182600781111561118557fe5b60ff1681526020019850505050505050505060405180910390a260019150509998505050505050505050565b6111c16111bc6111c3565b611225565b565b600033905090565b6111df81606661153f90919063ffffffff16565b8073ffffffffffffffffffffffffffffffffffffffff167fee1504a83b6d4a361f4c1dc78ab59bfa30d6a3b6612c403e86bb01ef2984295f60405160405180910390a250565b61123981606661161a90919063ffffffff16565b8073ffffffffffffffffffffffffffffffffffffffff167f270d9b30cf5b0793bbfd54c9d5b94aeb49462b8148399000265144a8722da6b660405160405180910390a250565b60008073ffffffffffffffffffffffffffffffffffffffff168273ffffffffffffffffffffffffffffffffffffffff161415611306576040517f08c379a00000000000000000000000000000000000000000000000000000000081526004018080602001828103825260228152602001806117926022913960400191505060405180910390fd5b8260000160008373ffffffffffffffffffffffffffffffffffffffff1673ffffffffffffffffffffffffffffffffffffffff16815260200190815260200160002060009054906101000a900460ff16905092915050565b61137181603361161a90919063ffffffff16565b8073ffffffffffffffffffffffffffffffffffffffff167f0a8eb35e5ca14b3d6f28e4abf2f128dbab231a58b56e89beb5d636115001e16560405160405180910390a250565b6113cb81603361153f90919063ffffffff16565b8073ffffffffffffffffffffffffffffffffffffffff167f22380c05984257a1cb900161c713dd71d39e74820f1aea43bd3f1bdd2096129960405160405180910390a250565b6000803090506000813b9050600081149250505090565b600060019054906101000a900460ff16806114475750611446611411565b5b8061145e57506000809054906101000a900460ff16155b6114b3576040517f08c379a000000000000000000000000000000000000000000000000000000000815260040180806020018281038252602e8152602001806117b4602e913960400191505060405180910390fd5b60008060019054906101000a900460ff161590508015611503576001600060016101000a81548160ff02191690831515021790555060016000806101000a81548160ff0219169083151502179055505b61150c82610b9f565b61151a57611519826113b7565b5b801561153b5760008060016101000a81548160ff0219169083151502179055505b5050565b611549828261127f565b156115bc576040517f08c379a000000000000000000000000000000000000000000000000000000000815260040180806020018281038252601f8152602001807f526f6c65733a206163636f756e7420616c72656164792068617320726f6c650081525060200191505060405180910390fd5b60018260000160008373ffffffffffffffffffffffffffffffffffffffff1673ffffffffffffffffffffffffffffffffffffffff16815260200190815260200160002060006101000a81548160ff0219169083151502179055505050565b611624828261127f565b611679576040517f08c379a00000000000000000000000000000000000000000000000000000000081526004018080602001828103825260218152602001806117716021913960400191505060405180910390fd5b60008260000160008373ffffffffffffffffffffffffffffffffffffffff1673ffffffffffffffffffffffffffffffffffffffff16815260200190815260200160002060006101000a81548160ff0219169083151502179055505050565b604051806101400160405280600080191681526020016000815260200160008152602001600081526020016000600381111561170f57fe5b8152602001600060ff168152602001600079ffffffffffffffffffffffffffffffffffffffffffffffffffff191681526020016000600481111561174f57fe5b81526020016000600781111561176157fe5b8152602001600015158152509056fe526f6c65733a206163636f756e7420646f6573206e6f74206861766520726f6c65526f6c65733a206163636f756e7420697320746865207a65726f2061646472657373436f6e747261637420696e7374616e63652068617320616c7265616479206265656e20696e697469616c697a656457686974656c69737441646d696e526f6c653a2063616c6c657220646f6573206e6f742068617665207468652057686974656c69737441646d696e20726f6c6557686974656c6973746564526f6c653a2063616c6c657220646f6573206e6f742068617665207468652057686974656c697374656420726f6c65a265627a7a72315820c483c7d732bbea254285caaee54d0892a3cc86663089a081c2535f07d7f2b2f864736f6c63430005110032",
  "compiler": {
    "name": "solc",
    "version": "0.5.17+commit.d19bba13.Emscripten.clang",
    "optimizer": {
      "enabled": false,
      "runs": 200
    },
    "evmVersion": "petersburg"
  }
}