{
  "fileName": "CovidCredentialRegistry.sol",
  "contractName": "CovidCredentialRegistry",
  "source": "pragma solidity ^0.5.0;\n\nimport \"@openzeppelin/contracts-ethereum-package/contracts/access/roles/WhitelistedRole.sol\";\nimport \"./ICredentialRegistry.sol\";\n\ncontract CovidCredentialRegistry is ICredentialRegistry, WhitelistedRole {\n\n  mapping (bytes32 => mapping (address => CovidMetadata)) credentials;\n\n  function register(bytes32 hash, bytes32 subjectId, uint startDate, uint exp,Sex sex, uint8 age, bytes6 geoHash, CovidCode credentialType, InterruptionReason reason, byte symptoms) onlyWhitelisted external returns(bool) {\n    CovidMetadata storage credential = credentials[hash][msg.sender];\n    require(credential.subjectId==0,\"Credential ID already exists\");\n\n    credential.subjectId = subjectId;\n    credential.startDate = startDate;\n    credential.iat = now*1000;\n    credential.exp = exp;\n    credential.sex = sex;\n    credential.age = age;\n    credential.geoHash = geoHash;\n    credential.credentialType = credentialType;\n    credential.reason = reason;\n    credential.symptoms = symptoms;\n    credential.status = true;\n    credentials[hash][msg.sender] = credential;\n    emit CredentialRegistered(hash, msg.sender, subjectId, startDate, credential.iat, sex, age, geoHash, credentialType, reason, symptoms);\n    return true;\n  }\n\n  function revoke(bytes32 hash) onlyWhitelisted external returns(bool) {\n    CovidMetadata storage credential = credentials[hash][msg.sender];\n\n    require(credential.subjectId!=0, \"credential hash doesn't exist\");\n    require(credential.status, \"Credential is already revoked\");  \n     \n    credential.status = false;  \n    credentials[hash][msg.sender] = credential;\n    emit CredentialRevoked(hash, msg.sender, now);\n    return true;\n  }\n  \n  function verify(bytes32 hash, address citizen) external view returns(bool isValid){\n    CovidMetadata memory credential = credentials[hash][citizen];\n    require(credential.subjectId!=0,\"Credential hash doesn't exist\");\n    return credential.status;\n  }\n}",
  "sourcePath": "contracts/CovidCredentialRegistry.sol",
  "abi": [
    {
      "anonymous": false,
      "inputs": [
        {
          "indexed": true,
          "internalType": "bytes32",
          "name": "hash",
          "type": "bytes32"
        },
        {
          "indexed": false,
          "internalType": "address",
          "name": "by",
          "type": "address"
        },
        {
          "indexed": false,
          "internalType": "bytes32",
          "name": "id",
          "type": "bytes32"
        },
        {
          "indexed": false,
          "internalType": "uint256",
          "name": "startDate",
          "type": "uint256"
        },
        {
          "indexed": false,
          "internalType": "uint256",
          "name": "iat",
          "type": "uint256"
        },
        {
          "indexed": false,
          "internalType": "enum ICredentialRegistry.Sex",
          "name": "sex",
          "type": "uint8"
        },
        {
          "indexed": false,
          "internalType": "uint8",
          "name": "age",
          "type": "uint8"
        },
        {
          "indexed": false,
          "internalType": "bytes6",
          "name": "geoHash",
          "type": "bytes6"
        },
        {
          "indexed": false,
          "internalType": "enum ICredentialRegistry.CovidCode",
          "name": "credentialType",
          "type": "uint8"
        },
        {
          "indexed": false,
          "internalType": "enum ICredentialRegistry.InterruptionReason",
          "name": "reason",
          "type": "uint8"
        },
        {
          "indexed": false,
          "internalType": "bytes1",
          "name": "symptoms",
          "type": "bytes1"
        }
      ],
      "name": "CredentialRegistered",
      "type": "event"
    },
    {
      "anonymous": false,
      "inputs": [
        {
          "indexed": true,
          "internalType": "bytes32",
          "name": "hash",
          "type": "bytes32"
        },
        {
          "indexed": false,
          "internalType": "address",
          "name": "by",
          "type": "address"
        },
        {
          "indexed": false,
          "internalType": "uint256",
          "name": "date",
          "type": "uint256"
        }
      ],
      "name": "CredentialRevoked",
      "type": "event"
    },
    {
      "anonymous": false,
      "inputs": [
        {
          "indexed": true,
          "internalType": "address",
          "name": "account",
          "type": "address"
        }
      ],
      "name": "WhitelistAdminAdded",
      "type": "event"
    },
    {
      "anonymous": false,
      "inputs": [
        {
          "indexed": true,
          "internalType": "address",
          "name": "account",
          "type": "address"
        }
      ],
      "name": "WhitelistAdminRemoved",
      "type": "event"
    },
    {
      "anonymous": false,
      "inputs": [
        {
          "indexed": true,
          "internalType": "address",
          "name": "account",
          "type": "address"
        }
      ],
      "name": "WhitelistedAdded",
      "type": "event"
    },
    {
      "anonymous": false,
      "inputs": [
        {
          "indexed": true,
          "internalType": "address",
          "name": "account",
          "type": "address"
        }
      ],
      "name": "WhitelistedRemoved",
      "type": "event"
    },
    {
      "constant": false,
      "inputs": [
        {
          "internalType": "address",
          "name": "account",
          "type": "address"
        }
      ],
      "name": "addWhitelistAdmin",
      "outputs": [],
      "payable": false,
      "stateMutability": "nonpayable",
      "type": "function"
    },
    {
      "constant": false,
      "inputs": [
        {
          "internalType": "address",
          "name": "account",
          "type": "address"
        }
      ],
      "name": "addWhitelisted",
      "outputs": [],
      "payable": false,
      "stateMutability": "nonpayable",
      "type": "function"
    },
    {
      "constant": false,
      "inputs": [
        {
          "internalType": "address",
          "name": "sender",
          "type": "address"
        }
      ],
      "name": "initialize",
      "outputs": [],
      "payable": false,
      "stateMutability": "nonpayable",
      "type": "function"
    },
    {
      "constant": true,
      "inputs": [
        {
          "internalType": "address",
          "name": "account",
          "type": "address"
        }
      ],
      "name": "isWhitelistAdmin",
      "outputs": [
        {
          "internalType": "bool",
          "name": "",
          "type": "bool"
        }
      ],
      "payable": false,
      "stateMutability": "view",
      "type": "function"
    },
    {
      "constant": true,
      "inputs": [
        {
          "internalType": "address",
          "name": "account",
          "type": "address"
        }
      ],
      "name": "isWhitelisted",
      "outputs": [
        {
          "internalType": "bool",
          "name": "",
          "type": "bool"
        }
      ],
      "payable": false,
      "stateMutability": "view",
      "type": "function"
    },
    {
      "constant": false,
      "inputs": [
        {
          "internalType": "bytes32",
          "name": "hash",
          "type": "bytes32"
        },
        {
          "internalType": "bytes32",
          "name": "subjectId",
          "type": "bytes32"
        },
        {
          "internalType": "uint256",
          "name": "startDate",
          "type": "uint256"
        },
        {
          "internalType": "uint256",
          "name": "exp",
          "type": "uint256"
        },
        {
          "internalType": "enum ICredentialRegistry.Sex",
          "name": "sex",
          "type": "uint8"
        },
        {
          "internalType": "uint8",
          "name": "age",
          "type": "uint8"
        },
        {
          "internalType": "bytes6",
          "name": "geoHash",
          "type": "bytes6"
        },
        {
          "internalType": "enum ICredentialRegistry.CovidCode",
          "name": "credentialType",
          "type": "uint8"
        },
        {
          "internalType": "enum ICredentialRegistry.InterruptionReason",
          "name": "reason",
          "type": "uint8"
        },
        {
          "internalType": "bytes1",
          "name": "symptoms",
          "type": "bytes1"
        }
      ],
      "name": "register",
      "outputs": [
        {
          "internalType": "bool",
          "name": "",
          "type": "bool"
        }
      ],
      "payable": false,
      "stateMutability": "nonpayable",
      "type": "function"
    },
    {
      "constant": false,
      "inputs": [
        {
          "internalType": "address",
          "name": "account",
          "type": "address"
        }
      ],
      "name": "removeWhitelisted",
      "outputs": [],
      "payable": false,
      "stateMutability": "nonpayable",
      "type": "function"
    },
    {
      "constant": false,
      "inputs": [],
      "name": "renounceWhitelistAdmin",
      "outputs": [],
      "payable": false,
      "stateMutability": "nonpayable",
      "type": "function"
    },
    {
      "constant": false,
      "inputs": [],
      "name": "renounceWhitelisted",
      "outputs": [],
      "payable": false,
      "stateMutability": "nonpayable",
      "type": "function"
    },
    {
      "constant": false,
      "inputs": [
        {
          "internalType": "bytes32",
          "name": "hash",
          "type": "bytes32"
        }
      ],
      "name": "revoke",
      "outputs": [
        {
          "internalType": "bool",
          "name": "",
          "type": "bool"
        }
      ],
      "payable": false,
      "stateMutability": "nonpayable",
      "type": "function"
    },
    {
      "constant": true,
      "inputs": [
        {
          "internalType": "bytes32",
          "name": "hash",
          "type": "bytes32"
        },
        {
          "internalType": "address",
          "name": "citizen",
          "type": "address"
        }
      ],
      "name": "verify",
      "outputs": [
        {
          "internalType": "bool",
          "name": "isValid",
          "type": "bool"
        }
      ],
      "payable": false,
      "stateMutability": "view",
      "type": "function"
    }
  ],
  "bytecode": "0x6080604052611a14806100136000396000f3fe608060405234801561001057600080fd5b50600436106100a95760003560e01c80637362d9c8116100715780637362d9c814610288578063b75c7dc6146102cc578063b88fbd2d14610312578063bb5f747b14610378578063c4d66de8146103d4578063d6cd947314610418576100a9565b806310154bad146100ae578063291d9549146100f25780633af32abf146101365780634c5a628c1461019257806357d7ed0b1461019c575b600080fd5b6100f0600480360360208110156100c457600080fd5b81019080803573ffffffffffffffffffffffffffffffffffffffff169060200190929190505050610422565b005b6101346004803603602081101561010857600080fd5b81019080803573ffffffffffffffffffffffffffffffffffffffff169060200190929190505050610493565b005b6101786004803603602081101561014c57600080fd5b81019080803573ffffffffffffffffffffffffffffffffffffffff169060200190929190505050610504565b604051808215151515815260200191505060405180910390f35b61019a610521565b005b61026e60048036036101408110156101b357600080fd5b8101908080359060200190929190803590602001909291908035906020019092919080359060200190929190803560ff169060200190929190803560ff169060200190929190803579ffffffffffffffffffffffffffffffffffffffffffffffffffff19169060200190929190803560ff169060200190929190803560ff16906020019092919080357effffffffffffffffffffffffffffffffffffffffffffffffffffffffffffff19169060200190929190505050610533565b604051808215151515815260200191505060405180910390f35b6102ca6004803603602081101561029e57600080fd5b81019080803573ffffffffffffffffffffffffffffffffffffffff169060200190929190505050610ac5565b005b6102f8600480360360208110156102e257600080fd5b8101908080359060200190929190505050610b36565b604051808215151515815260200191505060405180910390f35b61035e6004803603604081101561032857600080fd5b8101908080359060200190929190803573ffffffffffffffffffffffffffffffffffffffff169060200190929190505050610f5f565b604051808215151515815260200191505060405180910390f35b6103ba6004803603602081101561038e57600080fd5b81019080803573ffffffffffffffffffffffffffffffffffffffff1690602001909291905050506111e6565b604051808215151515815260200191505060405180910390f35b610416600480360360208110156103ea57600080fd5b81019080803573ffffffffffffffffffffffffffffffffffffffff169060200190929190505050611203565b005b61042061130c565b005b61043261042d61131e565b6111e6565b610487576040517f08c379a00000000000000000000000000000000000000000000000000000000081526004018080602001828103825260408152602001806119666040913960400191505060405180910390fd5b61049081611326565b50565b6104a361049e61131e565b6111e6565b6104f8576040517f08c379a00000000000000000000000000000000000000000000000000000000081526004018080602001828103825260408152602001806119666040913960400191505060405180910390fd5b61050181611380565b50565b600061051a8260666113da90919063ffffffff16565b9050919050565b61053161052c61131e565b6114b8565b565b600061054561054061131e565b610504565b61059a576040517f08c379a000000000000000000000000000000000000000000000000000000000815260040180806020018281038252603a8152602001806119a6603a913960400191505060405180910390fd5b6000609960008d815260200190815260200160002060003373ffffffffffffffffffffffffffffffffffffffff1673ffffffffffffffffffffffffffffffffffffffff16815260200190815260200160002090506000801b81600001541461066a576040517f08c379a000000000000000000000000000000000000000000000000000000000815260040180806020018281038252601c8152602001807f43726564656e7469616c20494420616c7265616479206578697374730000000081525060200191505060405180910390fd5b8a81600001819055508981600101819055506103e842028160020181905550888160030181905550878160040160006101000a81548160ff021916908360038111156106b257fe5b0217905550868160040160016101000a81548160ff021916908360ff160217905550858160040160026101000a81548165ffffffffffff021916908360d01c0217905550848160040160086101000a81548160ff0219169083600481111561071657fe5b0217905550838160040160096101000a81548160ff0219169083600981111561073b57fe5b02179055508281600401600a6101000a81548160ff021916908360f81c0217905550600181600401600b6101000a81548160ff02191690831515021790555080609960008e815260200190815260200160002060003373ffffffffffffffffffffffffffffffffffffffff1673ffffffffffffffffffffffffffffffffffffffff168152602001908152602001600020600082015481600001556001820154816001015560028201548160020155600382015481600301556004820160009054906101000a900460ff168160040160006101000a81548160ff0219169083600381111561082457fe5b02179055506004820160019054906101000a900460ff168160040160016101000a81548160ff021916908360ff1602179055506004820160029054906101000a900460d01b8160040160026101000a81548165ffffffffffff021916908360d01c02179055506004820160089054906101000a900460ff168160040160086101000a81548160ff021916908360048111156108bb57fe5b02179055506004820160099054906101000a900460ff168160040160096101000a81548160ff021916908360098111156108f157fe5b021790555060048201600a9054906101000a900460f81b81600401600a6101000a81548160ff021916908360f81c021790555060048201600b9054906101000a900460ff1681600401600b6101000a81548160ff0219169083151502179055509050508b7faa886e307a163b36f1d75e382327065465e16b16984f8fee74942fd3aebf6d93338d8d85600201548d8d8d8d8d8d604051808b73ffffffffffffffffffffffffffffffffffffffff1673ffffffffffffffffffffffffffffffffffffffff1681526020018a81526020018981526020018881526020018760038111156109d857fe5b60ff1681526020018660ff1660ff1681526020018579ffffffffffffffffffffffffffffffffffffffffffffffffffff191679ffffffffffffffffffffffffffffffffffffffffffffffffffff19168152602001846004811115610a3857fe5b60ff168152602001836009811115610a4c57fe5b60ff168152602001827effffffffffffffffffffffffffffffffffffffffffffffffffffffffffffff19167effffffffffffffffffffffffffffffffffffffffffffffffffffffffffffff191681526020019a505050505050505050505060405180910390a260019150509a9950505050505050505050565b610ad5610ad061131e565b6111e6565b610b2a576040517f08c379a00000000000000000000000000000000000000000000000000000000081526004018080602001828103825260408152602001806119666040913960400191505060405180910390fd5b610b3381611512565b50565b6000610b48610b4361131e565b610504565b610b9d576040517f08c379a000000000000000000000000000000000000000000000000000000000815260040180806020018281038252603a8152602001806119a6603a913960400191505060405180910390fd5b60006099600084815260200190815260200160002060003373ffffffffffffffffffffffffffffffffffffffff1673ffffffffffffffffffffffffffffffffffffffff16815260200190815260200160002090506000801b81600001541415610c6e576040517f08c379a000000000000000000000000000000000000000000000000000000000815260040180806020018281038252601d8152602001807f63726564656e7469616c206861736820646f65736e277420657869737400000081525060200191505060405180910390fd5b80600401600b9054906101000a900460ff16610cf2576040517f08c379a000000000000000000000000000000000000000000000000000000000815260040180806020018281038252601d8152602001807f43726564656e7469616c20697320616c7265616479207265766f6b656400000081525060200191505060405180910390fd5b600081600401600b6101000a81548160ff021916908315150217905550806099600085815260200190815260200160002060003373ffffffffffffffffffffffffffffffffffffffff1673ffffffffffffffffffffffffffffffffffffffff168152602001908152602001600020600082015481600001556001820154816001015560028201548160020155600382015481600301556004820160009054906101000a900460ff168160040160006101000a81548160ff02191690836003811115610db957fe5b02179055506004820160019054906101000a900460ff168160040160016101000a81548160ff021916908360ff1602179055506004820160029054906101000a900460d01b8160040160026101000a81548165ffffffffffff021916908360d01c02179055506004820160089054906101000a900460ff168160040160086101000a81548160ff02191690836004811115610e5057fe5b02179055506004820160099054906101000a900460ff168160040160096101000a81548160ff02191690836009811115610e8657fe5b021790555060048201600a9054906101000a900460f81b81600401600a6101000a81548160ff021916908360f81c021790555060048201600b9054906101000a900460ff1681600401600b6101000a81548160ff021916908315150217905550905050827f80d4746828447d65eceb938c7f9d85fbeb232fe7819d5209ed452b3940f8904b3342604051808373ffffffffffffffffffffffffffffffffffffffff1673ffffffffffffffffffffffffffffffffffffffff1681526020018281526020019250505060405180910390a26001915050919050565b6000610f69611832565b6099600085815260200190815260200160002060008473ffffffffffffffffffffffffffffffffffffffff1673ffffffffffffffffffffffffffffffffffffffff16815260200190815260200160002060405180610160016040529081600082015481526020016001820154815260200160028201548152602001600382015481526020016004820160009054906101000a900460ff16600381111561100b57fe5b600381111561101657fe5b81526020016004820160019054906101000a900460ff1660ff1660ff1681526020016004820160029054906101000a900460d01b79ffffffffffffffffffffffffffffffffffffffffffffffffffff191679ffffffffffffffffffffffffffffffffffffffffffffffffffff191681526020016004820160089054906101000a900460ff1660048111156110a657fe5b60048111156110b157fe5b81526020016004820160099054906101000a900460ff1660098111156110d357fe5b60098111156110de57fe5b815260200160048201600a9054906101000a900460f81b7effffffffffffffffffffffffffffffffffffffffffffffffffffffffffffff19167effffffffffffffffffffffffffffffffffffffffffffffffffffffffffffff1916815260200160048201600b9054906101000a900460ff16151515158152505090506000801b816000015114156111d7576040517f08c379a000000000000000000000000000000000000000000000000000000000815260040180806020018281038252601d8152602001807f43726564656e7469616c206861736820646f65736e277420657869737400000081525060200191505060405180910390fd5b80610140015191505092915050565b60006111fc8260336113da90919063ffffffff16565b9050919050565b600060019054906101000a900460ff1680611222575061122161156c565b5b8061123957506000809054906101000a900460ff16155b61128e576040517f08c379a000000000000000000000000000000000000000000000000000000000815260040180806020018281038252602e815260200180611938602e913960400191505060405180910390fd5b60008060019054906101000a900460ff1615905080156112de576001600060016101000a81548160ff02191690831515021790555060016000806101000a81548160ff0219169083151502179055505b6112e782611583565b80156113085760008060016101000a81548160ff0219169083151502179055505b5050565b61131c61131761131e565b611380565b565b600033905090565b61133a81606661169a90919063ffffffff16565b8073ffffffffffffffffffffffffffffffffffffffff167fee1504a83b6d4a361f4c1dc78ab59bfa30d6a3b6612c403e86bb01ef2984295f60405160405180910390a250565b61139481606661177590919063ffffffff16565b8073ffffffffffffffffffffffffffffffffffffffff167f270d9b30cf5b0793bbfd54c9d5b94aeb49462b8148399000265144a8722da6b660405160405180910390a250565b60008073ffffffffffffffffffffffffffffffffffffffff168273ffffffffffffffffffffffffffffffffffffffff161415611461576040517f08c379a00000000000000000000000000000000000000000000000000000000081526004018080602001828103825260228152602001806119166022913960400191505060405180910390fd5b8260000160008373ffffffffffffffffffffffffffffffffffffffff1673ffffffffffffffffffffffffffffffffffffffff16815260200190815260200160002060009054906101000a900460ff16905092915050565b6114cc81603361177590919063ffffffff16565b8073ffffffffffffffffffffffffffffffffffffffff167f0a8eb35e5ca14b3d6f28e4abf2f128dbab231a58b56e89beb5d636115001e16560405160405180910390a250565b61152681603361169a90919063ffffffff16565b8073ffffffffffffffffffffffffffffffffffffffff167f22380c05984257a1cb900161c713dd71d39e74820f1aea43bd3f1bdd2096129960405160405180910390a250565b6000803090506000813b9050600081149250505090565b600060019054906101000a900460ff16806115a257506115a161156c565b5b806115b957506000809054906101000a900460ff16155b61160e576040517f08c379a000000000000000000000000000000000000000000000000000000000815260040180806020018281038252602e815260200180611938602e913960400191505060405180910390fd5b60008060019054906101000a900460ff16159050801561165e576001600060016101000a81548160ff02191690831515021790555060016000806101000a81548160ff0219169083151502179055505b611667826111e6565b6116755761167482611512565b5b80156116965760008060016101000a81548160ff0219169083151502179055505b5050565b6116a482826113da565b15611717576040517f08c379a000000000000000000000000000000000000000000000000000000000815260040180806020018281038252601f8152602001807f526f6c65733a206163636f756e7420616c72656164792068617320726f6c650081525060200191505060405180910390fd5b60018260000160008373ffffffffffffffffffffffffffffffffffffffff1673ffffffffffffffffffffffffffffffffffffffff16815260200190815260200160002060006101000a81548160ff0219169083151502179055505050565b61177f82826113da565b6117d4576040517f08c379a00000000000000000000000000000000000000000000000000000000081526004018080602001828103825260218152602001806118f56021913960400191505060405180910390fd5b60008260000160008373ffffffffffffffffffffffffffffffffffffffff1673ffffffffffffffffffffffffffffffffffffffff16815260200190815260200160002060006101000a81548160ff0219169083151502179055505050565b604051806101600160405280600080191681526020016000815260200160008152602001600081526020016000600381111561186a57fe5b8152602001600060ff168152602001600079ffffffffffffffffffffffffffffffffffffffffffffffffffff19168152602001600060048111156118aa57fe5b8152602001600060098111156118bc57fe5b815260200160007effffffffffffffffffffffffffffffffffffffffffffffffffffffffffffff19168152602001600015158152509056fe526f6c65733a206163636f756e7420646f6573206e6f74206861766520726f6c65526f6c65733a206163636f756e7420697320746865207a65726f2061646472657373436f6e747261637420696e7374616e63652068617320616c7265616479206265656e20696e697469616c697a656457686974656c69737441646d696e526f6c653a2063616c6c657220646f6573206e6f742068617665207468652057686974656c69737441646d696e20726f6c6557686974656c6973746564526f6c653a2063616c6c657220646f6573206e6f742068617665207468652057686974656c697374656420726f6c65a265627a7a72315820ebb8e60da39431f6aedb7f0a1b761d5e1e95d979bd68a484c8670d484bbec37e64736f6c63430005110032",
  "compiler": {
    "name": "solc",
    "version": "0.5.17+commit.d19bba13.Emscripten.clang",
    "optimizer": {
      "enabled": false,
      "runs": 200
    },
    "evmVersion": "petersburg"
  }
}