{
  "fileName": "CovidCredentialRegistry.sol",
  "contractName": "CovidCredentialRegistry",
  "source": "pragma solidity ^0.5.0;\n\nimport \"@openzeppelin/contracts-ethereum-package/contracts/access/roles/WhitelistedRole.sol\";\nimport \"./ICredentialRegistry.sol\";\n\ncontract CovidCredentialRegistry is ICredentialRegistry, WhitelistedRole {\n\n  mapping (bytes32 => mapping (address => CovidMetadata)) credentials;\n\n  function register(bytes32 hash, bytes32 subjectId, uint startDate, uint exp, Sex sex, uint8 age, int16 latitude, int16 longitude, CovidCode credentialType, InterruptionReason reason) onlyWhitelisted external returns(bool) {\n    CovidMetadata storage credential = credentials[hash][msg.sender];\n    require(credential.subjectId==0,\"Credential ID already exists\");\n\n    credential.subjectId = subjectId;\n    credential.startDate = startDate;\n    credential.iat = now*1000;\n    credential.exp = exp;\n    credential.sex = sex;\n    credential.age = age;\n    credential.latitude = latitude;\n    credential.longitude = longitude;\n    credential.credentialType = credentialType;\n    credential.reason = reason;\n    credential.status = true;\n    credentials[hash][msg.sender] = credential;\n    emit CredentialRegistered(hash, msg.sender, subjectId, startDate, credential.iat, sex, latitude, longitude, credentialType, reason);\n    return true;\n  }\n\n  function revoke(bytes32 hash) onlyWhitelisted external returns(bool) {\n    CovidMetadata storage credential = credentials[hash][msg.sender];\n\n    require(credential.subjectId!=0, \"credential hash doesn't exist\");\n    require(credential.status, \"Credential is already revoked\");  \n     \n    credential.status = false;  \n    credentials[hash][msg.sender] = credential;\n    emit CredentialRevoked(hash, msg.sender, now);\n    return true;\n  }\n  \n  function verify(bytes32 hash, address citizen) external view returns(bool isValid){\n    CovidMetadata memory credential = credentials[hash][citizen];\n    require(credential.subjectId!=0,\"Credential hash doesn't exist\");\n    return credential.status;\n  }\n}",
  "sourcePath": "contracts/CovidCredentialRegistry.sol",
  "abi": [
    {
      "anonymous": false,
      "inputs": [
        {
          "indexed": true,
          "internalType": "bytes32",
          "name": "hash",
          "type": "bytes32"
        },
        {
          "indexed": false,
          "internalType": "address",
          "name": "by",
          "type": "address"
        },
        {
          "indexed": false,
          "internalType": "bytes32",
          "name": "id",
          "type": "bytes32"
        },
        {
          "indexed": false,
          "internalType": "uint256",
          "name": "startDate",
          "type": "uint256"
        },
        {
          "indexed": false,
          "internalType": "uint256",
          "name": "iat",
          "type": "uint256"
        },
        {
          "indexed": false,
          "internalType": "enum ICredentialRegistry.Sex",
          "name": "sex",
          "type": "uint8"
        },
        {
          "indexed": false,
          "internalType": "int16",
          "name": "latitude",
          "type": "int16"
        },
        {
          "indexed": false,
          "internalType": "int16",
          "name": "longitude",
          "type": "int16"
        },
        {
          "indexed": false,
          "internalType": "enum ICredentialRegistry.CovidCode",
          "name": "credentialType",
          "type": "uint8"
        },
        {
          "indexed": false,
          "internalType": "enum ICredentialRegistry.InterruptionReason",
          "name": "reason",
          "type": "uint8"
        }
      ],
      "name": "CredentialRegistered",
      "type": "event"
    },
    {
      "anonymous": false,
      "inputs": [
        {
          "indexed": true,
          "internalType": "bytes32",
          "name": "hash",
          "type": "bytes32"
        },
        {
          "indexed": false,
          "internalType": "address",
          "name": "by",
          "type": "address"
        },
        {
          "indexed": false,
          "internalType": "uint256",
          "name": "date",
          "type": "uint256"
        }
      ],
      "name": "CredentialRevoked",
      "type": "event"
    },
    {
      "anonymous": false,
      "inputs": [
        {
          "indexed": true,
          "internalType": "address",
          "name": "account",
          "type": "address"
        }
      ],
      "name": "WhitelistAdminAdded",
      "type": "event"
    },
    {
      "anonymous": false,
      "inputs": [
        {
          "indexed": true,
          "internalType": "address",
          "name": "account",
          "type": "address"
        }
      ],
      "name": "WhitelistAdminRemoved",
      "type": "event"
    },
    {
      "anonymous": false,
      "inputs": [
        {
          "indexed": true,
          "internalType": "address",
          "name": "account",
          "type": "address"
        }
      ],
      "name": "WhitelistedAdded",
      "type": "event"
    },
    {
      "anonymous": false,
      "inputs": [
        {
          "indexed": true,
          "internalType": "address",
          "name": "account",
          "type": "address"
        }
      ],
      "name": "WhitelistedRemoved",
      "type": "event"
    },
    {
      "constant": false,
      "inputs": [
        {
          "internalType": "address",
          "name": "account",
          "type": "address"
        }
      ],
      "name": "addWhitelistAdmin",
      "outputs": [],
      "payable": false,
      "stateMutability": "nonpayable",
      "type": "function"
    },
    {
      "constant": false,
      "inputs": [
        {
          "internalType": "address",
          "name": "account",
          "type": "address"
        }
      ],
      "name": "addWhitelisted",
      "outputs": [],
      "payable": false,
      "stateMutability": "nonpayable",
      "type": "function"
    },
    {
      "constant": false,
      "inputs": [
        {
          "internalType": "address",
          "name": "sender",
          "type": "address"
        }
      ],
      "name": "initialize",
      "outputs": [],
      "payable": false,
      "stateMutability": "nonpayable",
      "type": "function"
    },
    {
      "constant": true,
      "inputs": [
        {
          "internalType": "address",
          "name": "account",
          "type": "address"
        }
      ],
      "name": "isWhitelistAdmin",
      "outputs": [
        {
          "internalType": "bool",
          "name": "",
          "type": "bool"
        }
      ],
      "payable": false,
      "stateMutability": "view",
      "type": "function"
    },
    {
      "constant": true,
      "inputs": [
        {
          "internalType": "address",
          "name": "account",
          "type": "address"
        }
      ],
      "name": "isWhitelisted",
      "outputs": [
        {
          "internalType": "bool",
          "name": "",
          "type": "bool"
        }
      ],
      "payable": false,
      "stateMutability": "view",
      "type": "function"
    },
    {
      "constant": false,
      "inputs": [
        {
          "internalType": "bytes32",
          "name": "hash",
          "type": "bytes32"
        },
        {
          "internalType": "bytes32",
          "name": "subjectId",
          "type": "bytes32"
        },
        {
          "internalType": "uint256",
          "name": "startDate",
          "type": "uint256"
        },
        {
          "internalType": "uint256",
          "name": "exp",
          "type": "uint256"
        },
        {
          "internalType": "enum ICredentialRegistry.Sex",
          "name": "sex",
          "type": "uint8"
        },
        {
          "internalType": "uint8",
          "name": "age",
          "type": "uint8"
        },
        {
          "internalType": "int16",
          "name": "latitude",
          "type": "int16"
        },
        {
          "internalType": "int16",
          "name": "longitude",
          "type": "int16"
        },
        {
          "internalType": "enum ICredentialRegistry.CovidCode",
          "name": "credentialType",
          "type": "uint8"
        },
        {
          "internalType": "enum ICredentialRegistry.InterruptionReason",
          "name": "reason",
          "type": "uint8"
        }
      ],
      "name": "register",
      "outputs": [
        {
          "internalType": "bool",
          "name": "",
          "type": "bool"
        }
      ],
      "payable": false,
      "stateMutability": "nonpayable",
      "type": "function"
    },
    {
      "constant": false,
      "inputs": [
        {
          "internalType": "address",
          "name": "account",
          "type": "address"
        }
      ],
      "name": "removeWhitelisted",
      "outputs": [],
      "payable": false,
      "stateMutability": "nonpayable",
      "type": "function"
    },
    {
      "constant": false,
      "inputs": [],
      "name": "renounceWhitelistAdmin",
      "outputs": [],
      "payable": false,
      "stateMutability": "nonpayable",
      "type": "function"
    },
    {
      "constant": false,
      "inputs": [],
      "name": "renounceWhitelisted",
      "outputs": [],
      "payable": false,
      "stateMutability": "nonpayable",
      "type": "function"
    },
    {
      "constant": false,
      "inputs": [
        {
          "internalType": "bytes32",
          "name": "hash",
          "type": "bytes32"
        }
      ],
      "name": "revoke",
      "outputs": [
        {
          "internalType": "bool",
          "name": "",
          "type": "bool"
        }
      ],
      "payable": false,
      "stateMutability": "nonpayable",
      "type": "function"
    },
    {
      "constant": true,
      "inputs": [
        {
          "internalType": "bytes32",
          "name": "hash",
          "type": "bytes32"
        },
        {
          "internalType": "address",
          "name": "citizen",
          "type": "address"
        }
      ],
      "name": "verify",
      "outputs": [
        {
          "internalType": "bool",
          "name": "isValid",
          "type": "bool"
        }
      ],
      "payable": false,
      "stateMutability": "view",
      "type": "function"
    }
  ],
  "bytecode": "0x60806040526118bf806100136000396000f3fe608060405234801561001057600080fd5b50600436106100a95760003560e01c8063a4186b6c11610071578063a4186b6c146101e0578063b75c7dc614610293578063b88fbd2d146102d9578063bb5f747b1461033f578063c4d66de81461039b578063d6cd9473146103df576100a9565b806310154bad146100ae578063291d9549146100f25780633af32abf146101365780634c5a628c146101925780637362d9c81461019c575b600080fd5b6100f0600480360360208110156100c457600080fd5b81019080803573ffffffffffffffffffffffffffffffffffffffff1690602001909291905050506103e9565b005b6101346004803603602081101561010857600080fd5b81019080803573ffffffffffffffffffffffffffffffffffffffff16906020019092919050505061045a565b005b6101786004803603602081101561014c57600080fd5b81019080803573ffffffffffffffffffffffffffffffffffffffff1690602001909291905050506104cb565b604051808215151515815260200191505060405180910390f35b61019a6104e8565b005b6101de600480360360208110156101b257600080fd5b81019080803573ffffffffffffffffffffffffffffffffffffffff1690602001909291905050506104fa565b005b61027960048036036101408110156101f757600080fd5b8101908080359060200190929190803590602001909291908035906020019092919080359060200190929190803560ff169060200190929190803560ff169060200190929190803560010b9060200190929190803560010b9060200190929190803560ff169060200190929190803560ff16906020019092919050505061056b565b604051808215151515815260200191505060405180910390f35b6102bf600480360360208110156102a957600080fd5b8101908080359060200190929190505050610a87565b604051808215151515815260200191505060405180910390f35b610325600480360360408110156102ef57600080fd5b8101908080359060200190929190803573ffffffffffffffffffffffffffffffffffffffff169060200190929190505050610eb5565b604051808215151515815260200191505060405180910390f35b6103816004803603602081101561035557600080fd5b81019080803573ffffffffffffffffffffffffffffffffffffffff1690602001909291905050506110ca565b604051808215151515815260200191505060405180910390f35b6103dd600480360360208110156103b157600080fd5b81019080803573ffffffffffffffffffffffffffffffffffffffff1690602001909291905050506110e7565b005b6103e76111f0565b005b6103f96103f4611202565b6110ca565b61044e576040517f08c379a00000000000000000000000000000000000000000000000000000000081526004018080602001828103825260408152602001806118116040913960400191505060405180910390fd5b6104578161120a565b50565b61046a610465611202565b6110ca565b6104bf576040517f08c379a00000000000000000000000000000000000000000000000000000000081526004018080602001828103825260408152602001806118116040913960400191505060405180910390fd5b6104c881611264565b50565b60006104e18260666112be90919063ffffffff16565b9050919050565b6104f86104f3611202565b61139c565b565b61050a610505611202565b6110ca565b61055f576040517f08c379a00000000000000000000000000000000000000000000000000000000081526004018080602001828103825260408152602001806118116040913960400191505060405180910390fd5b610568816113f6565b50565b600061057d610578611202565b6104cb565b6105d2576040517f08c379a000000000000000000000000000000000000000000000000000000000815260040180806020018281038252603a815260200180611851603a913960400191505060405180910390fd5b6000609960008d815260200190815260200160002060003373ffffffffffffffffffffffffffffffffffffffff1673ffffffffffffffffffffffffffffffffffffffff16815260200190815260200160002090506000801b8160000154146106a2576040517f08c379a000000000000000000000000000000000000000000000000000000000815260040180806020018281038252601c8152602001807f43726564656e7469616c20494420616c7265616479206578697374730000000081525060200191505060405180910390fd5b8a81600001819055508981600101819055506103e842028160020181905550888160030181905550878160040160006101000a81548160ff021916908360038111156106ea57fe5b0217905550868160040160016101000a81548160ff021916908360ff160217905550858160040160026101000a81548161ffff021916908360010b61ffff160217905550848160040160046101000a81548161ffff021916908360010b61ffff160217905550838160040160066101000a81548160ff0219169083600481111561077057fe5b0217905550828160040160076101000a81548160ff0219169083600781111561079557fe5b021790555060018160040160086101000a81548160ff02191690831515021790555080609960008e815260200190815260200160002060003373ffffffffffffffffffffffffffffffffffffffff1673ffffffffffffffffffffffffffffffffffffffff168152602001908152602001600020600082015481600001556001820154816001015560028201548160020155600382015481600301556004820160009054906101000a900460ff168160040160006101000a81548160ff0219169083600381111561086157fe5b02179055506004820160019054906101000a900460ff168160040160016101000a81548160ff021916908360ff1602179055506004820160029054906101000a900460010b8160040160026101000a81548161ffff021916908360010b61ffff1602179055506004820160049054906101000a900460010b8160040160046101000a81548161ffff021916908360010b61ffff1602179055506004820160069054906101000a900460ff168160040160066101000a81548160ff0219169083600481111561092b57fe5b02179055506004820160079054906101000a900460ff168160040160076101000a81548160ff0219169083600781111561096157fe5b02179055506004820160089054906101000a900460ff168160040160086101000a81548160ff0219169083151502179055509050508b7f06da6161d66c1de931acb7e7f7bf3713ca23bb026fc4efe041f242b155365220338d8d85600201548d8c8c8c8c604051808a73ffffffffffffffffffffffffffffffffffffffff1673ffffffffffffffffffffffffffffffffffffffff168152602001898152602001888152602001878152602001866003811115610a1957fe5b60ff1681526020018560010b60010b81526020018460010b60010b8152602001836004811115610a4557fe5b60ff168152602001826007811115610a5957fe5b60ff168152602001995050505050505050505060405180910390a260019150509a9950505050505050505050565b6000610a99610a94611202565b6104cb565b610aee576040517f08c379a000000000000000000000000000000000000000000000000000000000815260040180806020018281038252603a815260200180611851603a913960400191505060405180910390fd5b60006099600084815260200190815260200160002060003373ffffffffffffffffffffffffffffffffffffffff1673ffffffffffffffffffffffffffffffffffffffff16815260200190815260200160002090506000801b81600001541415610bbf576040517f08c379a000000000000000000000000000000000000000000000000000000000815260040180806020018281038252601d8152602001807f63726564656e7469616c206861736820646f65736e277420657869737400000081525060200191505060405180910390fd5b8060040160089054906101000a900460ff16610c43576040517f08c379a000000000000000000000000000000000000000000000000000000000815260040180806020018281038252601d8152602001807f43726564656e7469616c20697320616c7265616479207265766f6b656400000081525060200191505060405180910390fd5b60008160040160086101000a81548160ff021916908315150217905550806099600085815260200190815260200160002060003373ffffffffffffffffffffffffffffffffffffffff1673ffffffffffffffffffffffffffffffffffffffff168152602001908152602001600020600082015481600001556001820154816001015560028201548160020155600382015481600301556004820160009054906101000a900460ff168160040160006101000a81548160ff02191690836003811115610d0a57fe5b02179055506004820160019054906101000a900460ff168160040160016101000a81548160ff021916908360ff1602179055506004820160029054906101000a900460010b8160040160026101000a81548161ffff021916908360010b61ffff1602179055506004820160049054906101000a900460010b8160040160046101000a81548161ffff021916908360010b61ffff1602179055506004820160069054906101000a900460ff168160040160066101000a81548160ff02191690836004811115610dd457fe5b02179055506004820160079054906101000a900460ff168160040160076101000a81548160ff02191690836007811115610e0a57fe5b02179055506004820160089054906101000a900460ff168160040160086101000a81548160ff021916908315150217905550905050827f80d4746828447d65eceb938c7f9d85fbeb232fe7819d5209ed452b3940f8904b3342604051808373ffffffffffffffffffffffffffffffffffffffff1673ffffffffffffffffffffffffffffffffffffffff1681526020018281526020019250505060405180910390a26001915050919050565b6000610ebf611716565b6099600085815260200190815260200160002060008473ffffffffffffffffffffffffffffffffffffffff1673ffffffffffffffffffffffffffffffffffffffff16815260200190815260200160002060405180610160016040529081600082015481526020016001820154815260200160028201548152602001600382015481526020016004820160009054906101000a900460ff166003811115610f6157fe5b6003811115610f6c57fe5b81526020016004820160019054906101000a900460ff1660ff1660ff1681526020016004820160029054906101000a900460010b60010b60010b81526020016004820160049054906101000a900460010b60010b60010b81526020016004820160069054906101000a900460ff166004811115610fe557fe5b6004811115610ff057fe5b81526020016004820160079054906101000a900460ff16600781111561101257fe5b600781111561101d57fe5b81526020016004820160089054906101000a900460ff16151515158152505090506000801b816000015114156110bb576040517f08c379a000000000000000000000000000000000000000000000000000000000815260040180806020018281038252601d8152602001807f43726564656e7469616c206861736820646f65736e277420657869737400000081525060200191505060405180910390fd5b80610140015191505092915050565b60006110e08260336112be90919063ffffffff16565b9050919050565b600060019054906101000a900460ff16806111065750611105611450565b5b8061111d57506000809054906101000a900460ff16155b611172576040517f08c379a000000000000000000000000000000000000000000000000000000000815260040180806020018281038252602e8152602001806117e3602e913960400191505060405180910390fd5b60008060019054906101000a900460ff1615905080156111c2576001600060016101000a81548160ff02191690831515021790555060016000806101000a81548160ff0219169083151502179055505b6111cb82611467565b80156111ec5760008060016101000a81548160ff0219169083151502179055505b5050565b6112006111fb611202565b611264565b565b600033905090565b61121e81606661157e90919063ffffffff16565b8073ffffffffffffffffffffffffffffffffffffffff167fee1504a83b6d4a361f4c1dc78ab59bfa30d6a3b6612c403e86bb01ef2984295f60405160405180910390a250565b61127881606661165990919063ffffffff16565b8073ffffffffffffffffffffffffffffffffffffffff167f270d9b30cf5b0793bbfd54c9d5b94aeb49462b8148399000265144a8722da6b660405160405180910390a250565b60008073ffffffffffffffffffffffffffffffffffffffff168273ffffffffffffffffffffffffffffffffffffffff161415611345576040517f08c379a00000000000000000000000000000000000000000000000000000000081526004018080602001828103825260228152602001806117c16022913960400191505060405180910390fd5b8260000160008373ffffffffffffffffffffffffffffffffffffffff1673ffffffffffffffffffffffffffffffffffffffff16815260200190815260200160002060009054906101000a900460ff16905092915050565b6113b081603361165990919063ffffffff16565b8073ffffffffffffffffffffffffffffffffffffffff167f0a8eb35e5ca14b3d6f28e4abf2f128dbab231a58b56e89beb5d636115001e16560405160405180910390a250565b61140a81603361157e90919063ffffffff16565b8073ffffffffffffffffffffffffffffffffffffffff167f22380c05984257a1cb900161c713dd71d39e74820f1aea43bd3f1bdd2096129960405160405180910390a250565b6000803090506000813b9050600081149250505090565b600060019054906101000a900460ff16806114865750611485611450565b5b8061149d57506000809054906101000a900460ff16155b6114f2576040517f08c379a000000000000000000000000000000000000000000000000000000000815260040180806020018281038252602e8152602001806117e3602e913960400191505060405180910390fd5b60008060019054906101000a900460ff161590508015611542576001600060016101000a81548160ff02191690831515021790555060016000806101000a81548160ff0219169083151502179055505b61154b826110ca565b61155957611558826113f6565b5b801561157a5760008060016101000a81548160ff0219169083151502179055505b5050565b61158882826112be565b156115fb576040517f08c379a000000000000000000000000000000000000000000000000000000000815260040180806020018281038252601f8152602001807f526f6c65733a206163636f756e7420616c72656164792068617320726f6c650081525060200191505060405180910390fd5b60018260000160008373ffffffffffffffffffffffffffffffffffffffff1673ffffffffffffffffffffffffffffffffffffffff16815260200190815260200160002060006101000a81548160ff0219169083151502179055505050565b61166382826112be565b6116b8576040517f08c379a00000000000000000000000000000000000000000000000000000000081526004018080602001828103825260218152602001806117a06021913960400191505060405180910390fd5b60008260000160008373ffffffffffffffffffffffffffffffffffffffff1673ffffffffffffffffffffffffffffffffffffffff16815260200190815260200160002060006101000a81548160ff0219169083151502179055505050565b604051806101600160405280600080191681526020016000815260200160008152602001600081526020016000600381111561174e57fe5b8152602001600060ff168152602001600060010b8152602001600060010b81526020016000600481111561177e57fe5b81526020016000600781111561179057fe5b8152602001600015158152509056fe526f6c65733a206163636f756e7420646f6573206e6f74206861766520726f6c65526f6c65733a206163636f756e7420697320746865207a65726f2061646472657373436f6e747261637420696e7374616e63652068617320616c7265616479206265656e20696e697469616c697a656457686974656c69737441646d696e526f6c653a2063616c6c657220646f6573206e6f742068617665207468652057686974656c69737441646d696e20726f6c6557686974656c6973746564526f6c653a2063616c6c657220646f6573206e6f742068617665207468652057686974656c697374656420726f6c65a265627a7a7231582091835ec149564d3f0eff440b8a717fed030b207488fcd14f5dc3161561e9187a64736f6c63430005110032",
  "compiler": {
    "name": "solc",
    "version": "0.5.17+commit.d19bba13.Emscripten.clang",
    "optimizer": {
      "enabled": false,
      "runs": 200
    },
    "evmVersion": "petersburg"
  }
}