{
  "fileName": "LevelPointsRegistry.sol",
  "contractName": "LevelPointsRegistry",
  "source": "pragma solidity ^0.5.0;\n\nimport \"@openzeppelin/contracts-ethereum-package/contracts/access/roles/WhitelistedRole.sol\";\nimport \"./ILevelPointsRegistry.sol\";\n\ncontract LevelPointsRegistry is ILevelPointsRegistry, WhitelistedRole {\n\n  mapping (bytes32 => Citizen) _points;\n\n  function setPoints(bytes32 subjectId, uint256 amount, Level level) onlyWhitelisted external returns(bool) {\n    Citizen storage citizen = _points[subjectId];\n\n    citizen.points = amount;  \n    citizen.level = level;\n    _points[subjectId] = citizen;\n\n    emit PointsSet(subjectId, msg.sender, amount, level);\n    return true;\n  }\n  \n  function balanceOf(bytes32 subjectId) external view returns(uint256){\n    return _points[subjectId].points;\n  }\n  \n  function levelOf(bytes32 subjectId) external view returns(Level){\n    return _points[subjectId].level;    \n  }\n  \n}\n",
  "sourcePath": "contracts/LevelPointsRegistry.sol",
  "abi": [
    {
      "anonymous": false,
      "inputs": [
        {
          "indexed": true,
          "internalType": "bytes32",
          "name": "subjectId",
          "type": "bytes32"
        },
        {
          "indexed": false,
          "internalType": "address",
          "name": "sender",
          "type": "address"
        },
        {
          "indexed": false,
          "internalType": "uint256",
          "name": "amount",
          "type": "uint256"
        },
        {
          "indexed": false,
          "internalType": "enum ILevelPointsRegistry.Level",
          "name": "level",
          "type": "uint8"
        }
      ],
      "name": "PointsSet",
      "type": "event"
    },
    {
      "anonymous": false,
      "inputs": [
        {
          "indexed": true,
          "internalType": "address",
          "name": "account",
          "type": "address"
        }
      ],
      "name": "WhitelistAdminAdded",
      "type": "event"
    },
    {
      "anonymous": false,
      "inputs": [
        {
          "indexed": true,
          "internalType": "address",
          "name": "account",
          "type": "address"
        }
      ],
      "name": "WhitelistAdminRemoved",
      "type": "event"
    },
    {
      "anonymous": false,
      "inputs": [
        {
          "indexed": true,
          "internalType": "address",
          "name": "account",
          "type": "address"
        }
      ],
      "name": "WhitelistedAdded",
      "type": "event"
    },
    {
      "anonymous": false,
      "inputs": [
        {
          "indexed": true,
          "internalType": "address",
          "name": "account",
          "type": "address"
        }
      ],
      "name": "WhitelistedRemoved",
      "type": "event"
    },
    {
      "constant": false,
      "inputs": [
        {
          "internalType": "address",
          "name": "account",
          "type": "address"
        }
      ],
      "name": "addWhitelistAdmin",
      "outputs": [],
      "payable": false,
      "stateMutability": "nonpayable",
      "type": "function"
    },
    {
      "constant": false,
      "inputs": [
        {
          "internalType": "address",
          "name": "account",
          "type": "address"
        }
      ],
      "name": "addWhitelisted",
      "outputs": [],
      "payable": false,
      "stateMutability": "nonpayable",
      "type": "function"
    },
    {
      "constant": true,
      "inputs": [
        {
          "internalType": "bytes32",
          "name": "subjectId",
          "type": "bytes32"
        }
      ],
      "name": "balanceOf",
      "outputs": [
        {
          "internalType": "uint256",
          "name": "",
          "type": "uint256"
        }
      ],
      "payable": false,
      "stateMutability": "view",
      "type": "function"
    },
    {
      "constant": false,
      "inputs": [
        {
          "internalType": "address",
          "name": "sender",
          "type": "address"
        }
      ],
      "name": "initialize",
      "outputs": [],
      "payable": false,
      "stateMutability": "nonpayable",
      "type": "function"
    },
    {
      "constant": true,
      "inputs": [
        {
          "internalType": "address",
          "name": "account",
          "type": "address"
        }
      ],
      "name": "isWhitelistAdmin",
      "outputs": [
        {
          "internalType": "bool",
          "name": "",
          "type": "bool"
        }
      ],
      "payable": false,
      "stateMutability": "view",
      "type": "function"
    },
    {
      "constant": true,
      "inputs": [
        {
          "internalType": "address",
          "name": "account",
          "type": "address"
        }
      ],
      "name": "isWhitelisted",
      "outputs": [
        {
          "internalType": "bool",
          "name": "",
          "type": "bool"
        }
      ],
      "payable": false,
      "stateMutability": "view",
      "type": "function"
    },
    {
      "constant": true,
      "inputs": [
        {
          "internalType": "bytes32",
          "name": "subjectId",
          "type": "bytes32"
        }
      ],
      "name": "levelOf",
      "outputs": [
        {
          "internalType": "enum ILevelPointsRegistry.Level",
          "name": "",
          "type": "uint8"
        }
      ],
      "payable": false,
      "stateMutability": "view",
      "type": "function"
    },
    {
      "constant": false,
      "inputs": [
        {
          "internalType": "address",
          "name": "account",
          "type": "address"
        }
      ],
      "name": "removeWhitelisted",
      "outputs": [],
      "payable": false,
      "stateMutability": "nonpayable",
      "type": "function"
    },
    {
      "constant": false,
      "inputs": [],
      "name": "renounceWhitelistAdmin",
      "outputs": [],
      "payable": false,
      "stateMutability": "nonpayable",
      "type": "function"
    },
    {
      "constant": false,
      "inputs": [],
      "name": "renounceWhitelisted",
      "outputs": [],
      "payable": false,
      "stateMutability": "nonpayable",
      "type": "function"
    },
    {
      "constant": false,
      "inputs": [
        {
          "internalType": "bytes32",
          "name": "subjectId",
          "type": "bytes32"
        },
        {
          "internalType": "uint256",
          "name": "amount",
          "type": "uint256"
        },
        {
          "internalType": "enum ILevelPointsRegistry.Level",
          "name": "level",
          "type": "uint8"
        }
      ],
      "name": "setPoints",
      "outputs": [
        {
          "internalType": "bool",
          "name": "",
          "type": "bool"
        }
      ],
      "payable": false,
      "stateMutability": "nonpayable",
      "type": "function"
    }
  ],
  "bytecode": "0x6080604052610e45806100136000396000f3fe608060405234801561001057600080fd5b50600436106100a95760003560e01c80634c5a628c116100715780634c5a628c1461023f5780636c7f1542146102495780637362d9c81461028b578063bb5f747b146102cf578063c4d66de81461032b578063d6cd94731461036f576100a9565b806310154bad146100ae57806310800d20146100f2578063291d95491461014257806334162bb0146101865780633af32abf146101e3575b600080fd5b6100f0600480360360208110156100c457600080fd5b81019080803573ffffffffffffffffffffffffffffffffffffffff169060200190929190505050610379565b005b61011e6004803603602081101561010857600080fd5b81019080803590602001909291905050506103ea565b6040518082600581111561012e57fe5b60ff16815260200191505060405180910390f35b6101846004803603602081101561015857600080fd5b81019080803573ffffffffffffffffffffffffffffffffffffffff169060200190929190505050610417565b005b6101c96004803603606081101561019c57600080fd5b810190808035906020019092919080359060200190929190803560ff169060200190929190505050610488565b604051808215151515815260200191505060405180910390f35b610225600480360360208110156101f957600080fd5b81019080803573ffffffffffffffffffffffffffffffffffffffff169060200190929190505050610619565b604051808215151515815260200191505060405180910390f35b610247610636565b005b6102756004803603602081101561025f57600080fd5b8101908080359060200190929190505050610648565b6040518082815260200191505060405180910390f35b6102cd600480360360208110156102a157600080fd5b81019080803573ffffffffffffffffffffffffffffffffffffffff169060200190929190505050610668565b005b610311600480360360208110156102e557600080fd5b81019080803573ffffffffffffffffffffffffffffffffffffffff1690602001909291905050506106d9565b604051808215151515815260200191505060405180910390f35b61036d6004803603602081101561034157600080fd5b81019080803573ffffffffffffffffffffffffffffffffffffffff1690602001909291905050506106f6565b005b6103776107ff565b005b610389610384610811565b6106d9565b6103de576040517f08c379a0000000000000000000000000000000000000000000000000000000008152600401808060200182810382526040815260200180610d976040913960400191505060405180910390fd5b6103e781610819565b50565b60006099600083815260200190815260200160002060010160009054906101000a900460ff169050919050565b610427610422610811565b6106d9565b61047c576040517f08c379a0000000000000000000000000000000000000000000000000000000008152600401808060200182810382526040815260200180610d976040913960400191505060405180910390fd5b61048581610873565b50565b600061049a610495610811565b610619565b6104ef576040517f08c379a000000000000000000000000000000000000000000000000000000000815260040180806020018281038252603a815260200180610dd7603a913960400191505060405180910390fd5b6000609960008681526020019081526020016000209050838160000181905550828160010160006101000a81548160ff0219169083600581111561052f57fe5b02179055508060996000878152602001908152602001600020600082015481600001556001820160009054906101000a900460ff168160010160006101000a81548160ff0219169083600581111561058357fe5b0217905550905050847f4b585282759bea904679f9f60bc8c8c26e8588e489c58ee7f8c02e72421f969d338686604051808473ffffffffffffffffffffffffffffffffffffffff1673ffffffffffffffffffffffffffffffffffffffff1681526020018381526020018260058111156105f857fe5b60ff168152602001935050505060405180910390a260019150509392505050565b600061062f8260666108cd90919063ffffffff16565b9050919050565b610646610641610811565b6109ab565b565b600060996000838152602001908152602001600020600001549050919050565b610678610673610811565b6106d9565b6106cd576040517f08c379a0000000000000000000000000000000000000000000000000000000008152600401808060200182810382526040815260200180610d976040913960400191505060405180910390fd5b6106d681610a05565b50565b60006106ef8260336108cd90919063ffffffff16565b9050919050565b600060019054906101000a900460ff16806107155750610714610a5f565b5b8061072c57506000809054906101000a900460ff16155b610781576040517f08c379a000000000000000000000000000000000000000000000000000000000815260040180806020018281038252602e815260200180610d69602e913960400191505060405180910390fd5b60008060019054906101000a900460ff1615905080156107d1576001600060016101000a81548160ff02191690831515021790555060016000806101000a81548160ff0219169083151502179055505b6107da82610a76565b80156107fb5760008060016101000a81548160ff0219169083151502179055505b5050565b61080f61080a610811565b610873565b565b600033905090565b61082d816066610b8d90919063ffffffff16565b8073ffffffffffffffffffffffffffffffffffffffff167fee1504a83b6d4a361f4c1dc78ab59bfa30d6a3b6612c403e86bb01ef2984295f60405160405180910390a250565b610887816066610c6890919063ffffffff16565b8073ffffffffffffffffffffffffffffffffffffffff167f270d9b30cf5b0793bbfd54c9d5b94aeb49462b8148399000265144a8722da6b660405160405180910390a250565b60008073ffffffffffffffffffffffffffffffffffffffff168273ffffffffffffffffffffffffffffffffffffffff161415610954576040517f08c379a0000000000000000000000000000000000000000000000000000000008152600401808060200182810382526022815260200180610d476022913960400191505060405180910390fd5b8260000160008373ffffffffffffffffffffffffffffffffffffffff1673ffffffffffffffffffffffffffffffffffffffff16815260200190815260200160002060009054906101000a900460ff16905092915050565b6109bf816033610c6890919063ffffffff16565b8073ffffffffffffffffffffffffffffffffffffffff167f0a8eb35e5ca14b3d6f28e4abf2f128dbab231a58b56e89beb5d636115001e16560405160405180910390a250565b610a19816033610b8d90919063ffffffff16565b8073ffffffffffffffffffffffffffffffffffffffff167f22380c05984257a1cb900161c713dd71d39e74820f1aea43bd3f1bdd2096129960405160405180910390a250565b6000803090506000813b9050600081149250505090565b600060019054906101000a900460ff1680610a955750610a94610a5f565b5b80610aac57506000809054906101000a900460ff16155b610b01576040517f08c379a000000000000000000000000000000000000000000000000000000000815260040180806020018281038252602e815260200180610d69602e913960400191505060405180910390fd5b60008060019054906101000a900460ff161590508015610b51576001600060016101000a81548160ff02191690831515021790555060016000806101000a81548160ff0219169083151502179055505b610b5a826106d9565b610b6857610b6782610a05565b5b8015610b895760008060016101000a81548160ff0219169083151502179055505b5050565b610b9782826108cd565b15610c0a576040517f08c379a000000000000000000000000000000000000000000000000000000000815260040180806020018281038252601f8152602001807f526f6c65733a206163636f756e7420616c72656164792068617320726f6c650081525060200191505060405180910390fd5b60018260000160008373ffffffffffffffffffffffffffffffffffffffff1673ffffffffffffffffffffffffffffffffffffffff16815260200190815260200160002060006101000a81548160ff0219169083151502179055505050565b610c7282826108cd565b610cc7576040517f08c379a0000000000000000000000000000000000000000000000000000000008152600401808060200182810382526021815260200180610d266021913960400191505060405180910390fd5b60008260000160008373ffffffffffffffffffffffffffffffffffffffff1673ffffffffffffffffffffffffffffffffffffffff16815260200190815260200160002060006101000a81548160ff021916908315150217905550505056fe526f6c65733a206163636f756e7420646f6573206e6f74206861766520726f6c65526f6c65733a206163636f756e7420697320746865207a65726f2061646472657373436f6e747261637420696e7374616e63652068617320616c7265616479206265656e20696e697469616c697a656457686974656c69737441646d696e526f6c653a2063616c6c657220646f6573206e6f742068617665207468652057686974656c69737441646d696e20726f6c6557686974656c6973746564526f6c653a2063616c6c657220646f6573206e6f742068617665207468652057686974656c697374656420726f6c65a265627a7a7231582093bf92e36f3487ad2466ed4c86f9f482d34499a756cdf2930c48bec878e9253a64736f6c63430005110032",
  "compiler": {
    "name": "solc",
    "version": "0.5.17+commit.d19bba13.Emscripten.clang",
    "optimizer": {
      "enabled": false,
      "runs": 200
    },
    "evmVersion": "petersburg"
  }
}