{
  "fileName": "PointsRegistry.sol",
  "contractName": "PointsRegistry",
  "source": "pragma solidity ^0.5.0;\n\nimport \"@openzeppelin/contracts-ethereum-package/contracts/access/roles/WhitelistedRole.sol\";\nimport \"./IPointsRegistry.sol\";\nimport \"@openzeppelin/contracts-ethereum-package/contracts/math/SafeMath.sol\";\n\ncontract PointsRegistry is IPointsRegistry, WhitelistedRole {\n    \n  using SafeMath for uint256;\n\n  mapping (bytes32 => uint256) _points;\n\n  function addPoints(bytes32 subjectId, uint256 amount) onlyWhitelisted external returns(bool) {\n    _points[subjectId] = _points[subjectId].add(amount);\n    emit PointsAdded(subjectId, msg.sender, amount);\n    return true;\n  }\n\n  function subPoints(bytes32 subjectId, uint256 amount) onlyWhitelisted external returns(bool) {\n    _points[subjectId] = _points[subjectId].sub(amount, \"points amount exceeds balance\");\n    emit PointsRemoved(subjectId, msg.sender, amount);\n    return true;\n  }\n  \n  function balanceOf(bytes32 subjectId) external view returns(uint256){\n    return _points[subjectId];\n  }\n  \n}\n",
  "sourcePath": "contracts/PointsRegistry.sol",
  "abi": [
    {
      "anonymous": false,
      "inputs": [
        {
          "indexed": true,
          "internalType": "bytes32",
          "name": "id",
          "type": "bytes32"
        },
        {
          "indexed": false,
          "internalType": "address",
          "name": "sender",
          "type": "address"
        },
        {
          "indexed": false,
          "internalType": "uint256",
          "name": "amount",
          "type": "uint256"
        }
      ],
      "name": "PointsAdded",
      "type": "event"
    },
    {
      "anonymous": false,
      "inputs": [
        {
          "indexed": true,
          "internalType": "bytes32",
          "name": "id",
          "type": "bytes32"
        },
        {
          "indexed": false,
          "internalType": "address",
          "name": "sender",
          "type": "address"
        },
        {
          "indexed": false,
          "internalType": "uint256",
          "name": "amount",
          "type": "uint256"
        }
      ],
      "name": "PointsRemoved",
      "type": "event"
    },
    {
      "anonymous": false,
      "inputs": [
        {
          "indexed": true,
          "internalType": "address",
          "name": "account",
          "type": "address"
        }
      ],
      "name": "WhitelistAdminAdded",
      "type": "event"
    },
    {
      "anonymous": false,
      "inputs": [
        {
          "indexed": true,
          "internalType": "address",
          "name": "account",
          "type": "address"
        }
      ],
      "name": "WhitelistAdminRemoved",
      "type": "event"
    },
    {
      "anonymous": false,
      "inputs": [
        {
          "indexed": true,
          "internalType": "address",
          "name": "account",
          "type": "address"
        }
      ],
      "name": "WhitelistedAdded",
      "type": "event"
    },
    {
      "anonymous": false,
      "inputs": [
        {
          "indexed": true,
          "internalType": "address",
          "name": "account",
          "type": "address"
        }
      ],
      "name": "WhitelistedRemoved",
      "type": "event"
    },
    {
      "constant": false,
      "inputs": [
        {
          "internalType": "bytes32",
          "name": "subjectId",
          "type": "bytes32"
        },
        {
          "internalType": "uint256",
          "name": "amount",
          "type": "uint256"
        }
      ],
      "name": "addPoints",
      "outputs": [
        {
          "internalType": "bool",
          "name": "",
          "type": "bool"
        }
      ],
      "payable": false,
      "stateMutability": "nonpayable",
      "type": "function"
    },
    {
      "constant": false,
      "inputs": [
        {
          "internalType": "address",
          "name": "account",
          "type": "address"
        }
      ],
      "name": "addWhitelistAdmin",
      "outputs": [],
      "payable": false,
      "stateMutability": "nonpayable",
      "type": "function"
    },
    {
      "constant": false,
      "inputs": [
        {
          "internalType": "address",
          "name": "account",
          "type": "address"
        }
      ],
      "name": "addWhitelisted",
      "outputs": [],
      "payable": false,
      "stateMutability": "nonpayable",
      "type": "function"
    },
    {
      "constant": true,
      "inputs": [
        {
          "internalType": "bytes32",
          "name": "subjectId",
          "type": "bytes32"
        }
      ],
      "name": "balanceOf",
      "outputs": [
        {
          "internalType": "uint256",
          "name": "",
          "type": "uint256"
        }
      ],
      "payable": false,
      "stateMutability": "view",
      "type": "function"
    },
    {
      "constant": false,
      "inputs": [
        {
          "internalType": "address",
          "name": "sender",
          "type": "address"
        }
      ],
      "name": "initialize",
      "outputs": [],
      "payable": false,
      "stateMutability": "nonpayable",
      "type": "function"
    },
    {
      "constant": true,
      "inputs": [
        {
          "internalType": "address",
          "name": "account",
          "type": "address"
        }
      ],
      "name": "isWhitelistAdmin",
      "outputs": [
        {
          "internalType": "bool",
          "name": "",
          "type": "bool"
        }
      ],
      "payable": false,
      "stateMutability": "view",
      "type": "function"
    },
    {
      "constant": true,
      "inputs": [
        {
          "internalType": "address",
          "name": "account",
          "type": "address"
        }
      ],
      "name": "isWhitelisted",
      "outputs": [
        {
          "internalType": "bool",
          "name": "",
          "type": "bool"
        }
      ],
      "payable": false,
      "stateMutability": "view",
      "type": "function"
    },
    {
      "constant": false,
      "inputs": [
        {
          "internalType": "address",
          "name": "account",
          "type": "address"
        }
      ],
      "name": "removeWhitelisted",
      "outputs": [],
      "payable": false,
      "stateMutability": "nonpayable",
      "type": "function"
    },
    {
      "constant": false,
      "inputs": [],
      "name": "renounceWhitelistAdmin",
      "outputs": [],
      "payable": false,
      "stateMutability": "nonpayable",
      "type": "function"
    },
    {
      "constant": false,
      "inputs": [],
      "name": "renounceWhitelisted",
      "outputs": [],
      "payable": false,
      "stateMutability": "nonpayable",
      "type": "function"
    },
    {
      "constant": false,
      "inputs": [
        {
          "internalType": "bytes32",
          "name": "subjectId",
          "type": "bytes32"
        },
        {
          "internalType": "uint256",
          "name": "amount",
          "type": "uint256"
        }
      ],
      "name": "subPoints",
      "outputs": [
        {
          "internalType": "bool",
          "name": "",
          "type": "bool"
        }
      ],
      "payable": false,
      "stateMutability": "nonpayable",
      "type": "function"
    }
  ],
  "bytecode": "0x608060405261102a806100136000396000f3fe608060405234801561001057600080fd5b50600436106100a95760003560e01c80636794bbff116100715780636794bbff146101ec5780636c7f15421461023c5780637362d9c81461027e578063bb5f747b146102c2578063c4d66de81461031e578063d6cd947314610362576100a9565b806310154bad146100ae578063291d9549146100f25780633af32abf1461013657806344b96589146101925780634c5a628c146101e2575b600080fd5b6100f0600480360360208110156100c457600080fd5b81019080803573ffffffffffffffffffffffffffffffffffffffff16906020019092919050505061036c565b005b6101346004803603602081101561010857600080fd5b81019080803573ffffffffffffffffffffffffffffffffffffffff1690602001909291905050506103dd565b005b6101786004803603602081101561014c57600080fd5b81019080803573ffffffffffffffffffffffffffffffffffffffff16906020019092919050505061044e565b604051808215151515815260200191505060405180910390f35b6101c8600480360360408110156101a857600080fd5b81019080803590602001909291908035906020019092919050505061046b565b604051808215151515815260200191505060405180910390f35b6101ea6105bc565b005b6102226004803603604081101561020257600080fd5b8101908080359060200190929190803590602001909291905050506105ce565b604051808215151515815260200191505060405180910390f35b6102686004803603602081101561025257600080fd5b81019080803590602001909291905050506106e8565b6040518082815260200191505060405180910390f35b6102c06004803603602081101561029457600080fd5b81019080803573ffffffffffffffffffffffffffffffffffffffff169060200190929190505050610705565b005b610304600480360360208110156102d857600080fd5b81019080803573ffffffffffffffffffffffffffffffffffffffff169060200190929190505050610776565b604051808215151515815260200191505060405180910390f35b6103606004803603602081101561033457600080fd5b81019080803573ffffffffffffffffffffffffffffffffffffffff169060200190929190505050610793565b005b61036a61089c565b005b61037c6103776108ae565b610776565b6103d1576040517f08c379a0000000000000000000000000000000000000000000000000000000008152600401808060200182810382526040815260200180610f7c6040913960400191505060405180910390fd5b6103da816108b6565b50565b6103ed6103e86108ae565b610776565b610442576040517f08c379a0000000000000000000000000000000000000000000000000000000008152600401808060200182810382526040815260200180610f7c6040913960400191505060405180910390fd5b61044b81610910565b50565b600061046482606661096a90919063ffffffff16565b9050919050565b600061047d6104786108ae565b61044e565b6104d2576040517f08c379a000000000000000000000000000000000000000000000000000000000815260040180806020018281038252603a815260200180610fbc603a913960400191505060405180910390fd5b61052f826040518060400160405280601d81526020017f706f696e747320616d6f756e7420657863656564732062616c616e63650000008152506099600087815260200190815260200160002054610a489092919063ffffffff16565b6099600085815260200190815260200160002081905550827fedbe0adcaae4decbd87d57dbbdb3d0ffa3fbcd9558f5fd56121eb7db1f066fe43384604051808373ffffffffffffffffffffffffffffffffffffffff1673ffffffffffffffffffffffffffffffffffffffff1681526020018281526020019250505060405180910390a26001905092915050565b6105cc6105c76108ae565b610b08565b565b60006105e06105db6108ae565b61044e565b610635576040517f08c379a000000000000000000000000000000000000000000000000000000000815260040180806020018281038252603a815260200180610fbc603a913960400191505060405180910390fd5b61065b826099600086815260200190815260200160002054610b6290919063ffffffff16565b6099600085815260200190815260200160002081905550827f3fa73371def7654dba1c4adc39c5ac796a02aff01c6cb096fab32defb05778233384604051808373ffffffffffffffffffffffffffffffffffffffff1673ffffffffffffffffffffffffffffffffffffffff1681526020018281526020019250505060405180910390a26001905092915050565b600060996000838152602001908152602001600020549050919050565b6107156107106108ae565b610776565b61076a576040517f08c379a0000000000000000000000000000000000000000000000000000000008152600401808060200182810382526040815260200180610f7c6040913960400191505060405180910390fd5b61077381610bea565b50565b600061078c82603361096a90919063ffffffff16565b9050919050565b600060019054906101000a900460ff16806107b257506107b1610c44565b5b806107c957506000809054906101000a900460ff16155b61081e576040517f08c379a000000000000000000000000000000000000000000000000000000000815260040180806020018281038252602e815260200180610f4e602e913960400191505060405180910390fd5b60008060019054906101000a900460ff16159050801561086e576001600060016101000a81548160ff02191690831515021790555060016000806101000a81548160ff0219169083151502179055505b61087782610c5b565b80156108985760008060016101000a81548160ff0219169083151502179055505b5050565b6108ac6108a76108ae565b610910565b565b600033905090565b6108ca816066610d7290919063ffffffff16565b8073ffffffffffffffffffffffffffffffffffffffff167fee1504a83b6d4a361f4c1dc78ab59bfa30d6a3b6612c403e86bb01ef2984295f60405160405180910390a250565b610924816066610e4d90919063ffffffff16565b8073ffffffffffffffffffffffffffffffffffffffff167f270d9b30cf5b0793bbfd54c9d5b94aeb49462b8148399000265144a8722da6b660405160405180910390a250565b60008073ffffffffffffffffffffffffffffffffffffffff168273ffffffffffffffffffffffffffffffffffffffff1614156109f1576040517f08c379a0000000000000000000000000000000000000000000000000000000008152600401808060200182810382526022815260200180610f2c6022913960400191505060405180910390fd5b8260000160008373ffffffffffffffffffffffffffffffffffffffff1673ffffffffffffffffffffffffffffffffffffffff16815260200190815260200160002060009054906101000a900460ff16905092915050565b6000838311158290610af5576040517f08c379a00000000000000000000000000000000000000000000000000000000081526004018080602001828103825283818151815260200191508051906020019080838360005b83811015610aba578082015181840152602081019050610a9f565b50505050905090810190601f168015610ae75780820380516001836020036101000a031916815260200191505b509250505060405180910390fd5b5060008385039050809150509392505050565b610b1c816033610e4d90919063ffffffff16565b8073ffffffffffffffffffffffffffffffffffffffff167f0a8eb35e5ca14b3d6f28e4abf2f128dbab231a58b56e89beb5d636115001e16560405160405180910390a250565b600080828401905083811015610be0576040517f08c379a000000000000000000000000000000000000000000000000000000000815260040180806020018281038252601b8152602001807f536166654d6174683a206164646974696f6e206f766572666c6f77000000000081525060200191505060405180910390fd5b8091505092915050565b610bfe816033610d7290919063ffffffff16565b8073ffffffffffffffffffffffffffffffffffffffff167f22380c05984257a1cb900161c713dd71d39e74820f1aea43bd3f1bdd2096129960405160405180910390a250565b6000803090506000813b9050600081149250505090565b600060019054906101000a900460ff1680610c7a5750610c79610c44565b5b80610c9157506000809054906101000a900460ff16155b610ce6576040517f08c379a000000000000000000000000000000000000000000000000000000000815260040180806020018281038252602e815260200180610f4e602e913960400191505060405180910390fd5b60008060019054906101000a900460ff161590508015610d36576001600060016101000a81548160ff02191690831515021790555060016000806101000a81548160ff0219169083151502179055505b610d3f82610776565b610d4d57610d4c82610bea565b5b8015610d6e5760008060016101000a81548160ff0219169083151502179055505b5050565b610d7c828261096a565b15610def576040517f08c379a000000000000000000000000000000000000000000000000000000000815260040180806020018281038252601f8152602001807f526f6c65733a206163636f756e7420616c72656164792068617320726f6c650081525060200191505060405180910390fd5b60018260000160008373ffffffffffffffffffffffffffffffffffffffff1673ffffffffffffffffffffffffffffffffffffffff16815260200190815260200160002060006101000a81548160ff0219169083151502179055505050565b610e57828261096a565b610eac576040517f08c379a0000000000000000000000000000000000000000000000000000000008152600401808060200182810382526021815260200180610f0b6021913960400191505060405180910390fd5b60008260000160008373ffffffffffffffffffffffffffffffffffffffff1673ffffffffffffffffffffffffffffffffffffffff16815260200190815260200160002060006101000a81548160ff021916908315150217905550505056fe526f6c65733a206163636f756e7420646f6573206e6f74206861766520726f6c65526f6c65733a206163636f756e7420697320746865207a65726f2061646472657373436f6e747261637420696e7374616e63652068617320616c7265616479206265656e20696e697469616c697a656457686974656c69737441646d696e526f6c653a2063616c6c657220646f6573206e6f742068617665207468652057686974656c69737441646d696e20726f6c6557686974656c6973746564526f6c653a2063616c6c657220646f6573206e6f742068617665207468652057686974656c697374656420726f6c65a265627a7a72315820b25331eaf0ec10bb173cddd57c73eb3c5336e071f3e7f76d404c3b71cb5592ff64736f6c63430005110032",
  "compiler": {
    "name": "solc",
    "version": "0.5.17+commit.d19bba13.Emscripten.clang",
    "optimizer": {
      "enabled": false,
      "runs": 200
    },
    "evmVersion": "petersburg"
  }
}