{
  "fileName": "WhitelistedRole.sol",
  "contractName": "WhitelistedRole",
  "source": "pragma solidity ^0.5.0;\n\nimport \"@openzeppelin/upgrades/contracts/Initializable.sol\";\n\nimport \"../../GSN/Context.sol\";\nimport \"../Roles.sol\";\nimport \"./WhitelistAdminRole.sol\";\n\n/**\n * @title WhitelistedRole\n * @dev Whitelisted accounts have been approved by a WhitelistAdmin to perform certain actions (e.g. participate in a\n * crowdsale). This role is special in that the only accounts that can add it are WhitelistAdmins (who can also remove\n * it), and not Whitelisteds themselves.\n */\ncontract WhitelistedRole is Initializable, Context, WhitelistAdminRole {\n    using Roles for Roles.Role;\n\n    event WhitelistedAdded(address indexed account);\n    event WhitelistedRemoved(address indexed account);\n\n    Roles.Role private _whitelisteds;\n\n    modifier onlyWhitelisted() {\n        require(isWhitelisted(_msgSender()), \"WhitelistedRole: caller does not have the Whitelisted role\");\n        _;\n    }\n\n    function initialize(address sender) public initializer {\n        WhitelistAdminRole.initialize(sender);\n    }\n\n    function isWhitelisted(address account) public view returns (bool) {\n        return _whitelisteds.has(account);\n    }\n\n    function addWhitelisted(address account) public onlyWhitelistAdmin {\n        _addWhitelisted(account);\n    }\n\n    function removeWhitelisted(address account) public onlyWhitelistAdmin {\n        _removeWhitelisted(account);\n    }\n\n    function renounceWhitelisted() public {\n        _removeWhitelisted(_msgSender());\n    }\n\n    function _addWhitelisted(address account) internal {\n        _whitelisteds.add(account);\n        emit WhitelistedAdded(account);\n    }\n\n    function _removeWhitelisted(address account) internal {\n        _whitelisteds.remove(account);\n        emit WhitelistedRemoved(account);\n    }\n\n    uint256[50] private ______gap;\n}\n",
  "sourcePath": "@openzeppelin/contracts-ethereum-package/contracts/access/roles/WhitelistedRole.sol",
  "abi": [
    {
      "anonymous": false,
      "inputs": [
        {
          "indexed": true,
          "internalType": "address",
          "name": "account",
          "type": "address"
        }
      ],
      "name": "WhitelistAdminAdded",
      "type": "event"
    },
    {
      "anonymous": false,
      "inputs": [
        {
          "indexed": true,
          "internalType": "address",
          "name": "account",
          "type": "address"
        }
      ],
      "name": "WhitelistAdminRemoved",
      "type": "event"
    },
    {
      "anonymous": false,
      "inputs": [
        {
          "indexed": true,
          "internalType": "address",
          "name": "account",
          "type": "address"
        }
      ],
      "name": "WhitelistedAdded",
      "type": "event"
    },
    {
      "anonymous": false,
      "inputs": [
        {
          "indexed": true,
          "internalType": "address",
          "name": "account",
          "type": "address"
        }
      ],
      "name": "WhitelistedRemoved",
      "type": "event"
    },
    {
      "constant": false,
      "inputs": [
        {
          "internalType": "address",
          "name": "account",
          "type": "address"
        }
      ],
      "name": "addWhitelistAdmin",
      "outputs": [],
      "payable": false,
      "stateMutability": "nonpayable",
      "type": "function"
    },
    {
      "constant": false,
      "inputs": [
        {
          "internalType": "address",
          "name": "account",
          "type": "address"
        }
      ],
      "name": "addWhitelisted",
      "outputs": [],
      "payable": false,
      "stateMutability": "nonpayable",
      "type": "function"
    },
    {
      "constant": false,
      "inputs": [
        {
          "internalType": "address",
          "name": "sender",
          "type": "address"
        }
      ],
      "name": "initialize",
      "outputs": [],
      "payable": false,
      "stateMutability": "nonpayable",
      "type": "function"
    },
    {
      "constant": true,
      "inputs": [
        {
          "internalType": "address",
          "name": "account",
          "type": "address"
        }
      ],
      "name": "isWhitelistAdmin",
      "outputs": [
        {
          "internalType": "bool",
          "name": "",
          "type": "bool"
        }
      ],
      "payable": false,
      "stateMutability": "view",
      "type": "function"
    },
    {
      "constant": true,
      "inputs": [
        {
          "internalType": "address",
          "name": "account",
          "type": "address"
        }
      ],
      "name": "isWhitelisted",
      "outputs": [
        {
          "internalType": "bool",
          "name": "",
          "type": "bool"
        }
      ],
      "payable": false,
      "stateMutability": "view",
      "type": "function"
    },
    {
      "constant": false,
      "inputs": [
        {
          "internalType": "address",
          "name": "account",
          "type": "address"
        }
      ],
      "name": "removeWhitelisted",
      "outputs": [],
      "payable": false,
      "stateMutability": "nonpayable",
      "type": "function"
    },
    {
      "constant": false,
      "inputs": [],
      "name": "renounceWhitelistAdmin",
      "outputs": [],
      "payable": false,
      "stateMutability": "nonpayable",
      "type": "function"
    },
    {
      "constant": false,
      "inputs": [],
      "name": "renounceWhitelisted",
      "outputs": [],
      "payable": false,
      "stateMutability": "nonpayable",
      "type": "function"
    }
  ],
  "bytecode": "0x6080604052610b1d806100136000396000f3fe608060405234801561001057600080fd5b50600436106100885760003560e01c80637362d9c81161005b5780637362d9c81461017b578063bb5f747b146101bf578063c4d66de81461021b578063d6cd94731461025f57610088565b806310154bad1461008d578063291d9549146100d15780633af32abf146101155780634c5a628c14610171575b600080fd5b6100cf600480360360208110156100a357600080fd5b81019080803573ffffffffffffffffffffffffffffffffffffffff169060200190929190505050610269565b005b610113600480360360208110156100e757600080fd5b81019080803573ffffffffffffffffffffffffffffffffffffffff1690602001909291905050506102da565b005b6101576004803603602081101561012b57600080fd5b81019080803573ffffffffffffffffffffffffffffffffffffffff16906020019092919050505061034b565b604051808215151515815260200191505060405180910390f35b610179610368565b005b6101bd6004803603602081101561019157600080fd5b81019080803573ffffffffffffffffffffffffffffffffffffffff16906020019092919050505061037a565b005b610201600480360360208110156101d557600080fd5b81019080803573ffffffffffffffffffffffffffffffffffffffff1690602001909291905050506103eb565b604051808215151515815260200191505060405180910390f35b61025d6004803603602081101561023157600080fd5b81019080803573ffffffffffffffffffffffffffffffffffffffff169060200190929190505050610408565b005b610267610511565b005b610279610274610523565b6103eb565b6102ce576040517f08c379a0000000000000000000000000000000000000000000000000000000008152600401808060200182810382526040815260200180610aa96040913960400191505060405180910390fd5b6102d78161052b565b50565b6102ea6102e5610523565b6103eb565b61033f576040517f08c379a0000000000000000000000000000000000000000000000000000000008152600401808060200182810382526040815260200180610aa96040913960400191505060405180910390fd5b61034881610585565b50565b60006103618260666105df90919063ffffffff16565b9050919050565b610378610373610523565b6106bd565b565b61038a610385610523565b6103eb565b6103df576040517f08c379a0000000000000000000000000000000000000000000000000000000008152600401808060200182810382526040815260200180610aa96040913960400191505060405180910390fd5b6103e881610717565b50565b60006104018260336105df90919063ffffffff16565b9050919050565b600060019054906101000a900460ff16806104275750610426610771565b5b8061043e57506000809054906101000a900460ff16155b610493576040517f08c379a000000000000000000000000000000000000000000000000000000000815260040180806020018281038252602e815260200180610a7b602e913960400191505060405180910390fd5b60008060019054906101000a900460ff1615905080156104e3576001600060016101000a81548160ff02191690831515021790555060016000806101000a81548160ff0219169083151502179055505b6104ec82610788565b801561050d5760008060016101000a81548160ff0219169083151502179055505b5050565b61052161051c610523565b610585565b565b600033905090565b61053f81606661089f90919063ffffffff16565b8073ffffffffffffffffffffffffffffffffffffffff167fee1504a83b6d4a361f4c1dc78ab59bfa30d6a3b6612c403e86bb01ef2984295f60405160405180910390a250565b61059981606661097a90919063ffffffff16565b8073ffffffffffffffffffffffffffffffffffffffff167f270d9b30cf5b0793bbfd54c9d5b94aeb49462b8148399000265144a8722da6b660405160405180910390a250565b60008073ffffffffffffffffffffffffffffffffffffffff168273ffffffffffffffffffffffffffffffffffffffff161415610666576040517f08c379a0000000000000000000000000000000000000000000000000000000008152600401808060200182810382526022815260200180610a596022913960400191505060405180910390fd5b8260000160008373ffffffffffffffffffffffffffffffffffffffff1673ffffffffffffffffffffffffffffffffffffffff16815260200190815260200160002060009054906101000a900460ff16905092915050565b6106d181603361097a90919063ffffffff16565b8073ffffffffffffffffffffffffffffffffffffffff167f0a8eb35e5ca14b3d6f28e4abf2f128dbab231a58b56e89beb5d636115001e16560405160405180910390a250565b61072b81603361089f90919063ffffffff16565b8073ffffffffffffffffffffffffffffffffffffffff167f22380c05984257a1cb900161c713dd71d39e74820f1aea43bd3f1bdd2096129960405160405180910390a250565b6000803090506000813b9050600081149250505090565b600060019054906101000a900460ff16806107a757506107a6610771565b5b806107be57506000809054906101000a900460ff16155b610813576040517f08c379a000000000000000000000000000000000000000000000000000000000815260040180806020018281038252602e815260200180610a7b602e913960400191505060405180910390fd5b60008060019054906101000a900460ff161590508015610863576001600060016101000a81548160ff02191690831515021790555060016000806101000a81548160ff0219169083151502179055505b61086c826103eb565b61087a5761087982610717565b5b801561089b5760008060016101000a81548160ff0219169083151502179055505b5050565b6108a982826105df565b1561091c576040517f08c379a000000000000000000000000000000000000000000000000000000000815260040180806020018281038252601f8152602001807f526f6c65733a206163636f756e7420616c72656164792068617320726f6c650081525060200191505060405180910390fd5b60018260000160008373ffffffffffffffffffffffffffffffffffffffff1673ffffffffffffffffffffffffffffffffffffffff16815260200190815260200160002060006101000a81548160ff0219169083151502179055505050565b61098482826105df565b6109d9576040517f08c379a0000000000000000000000000000000000000000000000000000000008152600401808060200182810382526021815260200180610a386021913960400191505060405180910390fd5b60008260000160008373ffffffffffffffffffffffffffffffffffffffff1673ffffffffffffffffffffffffffffffffffffffff16815260200190815260200160002060006101000a81548160ff021916908315150217905550505056fe526f6c65733a206163636f756e7420646f6573206e6f74206861766520726f6c65526f6c65733a206163636f756e7420697320746865207a65726f2061646472657373436f6e747261637420696e7374616e63652068617320616c7265616479206265656e20696e697469616c697a656457686974656c69737441646d696e526f6c653a2063616c6c657220646f6573206e6f742068617665207468652057686974656c69737441646d696e20726f6c65a265627a7a7231582090b20e9730a6c2ac8a3e22f8bbadd9fb34e499501fb025a285d5c11f81a1876264736f6c63430005110032",
  "compiler": {
    "name": "solc",
    "version": "0.5.17+commit.d19bba13.Emscripten.clang",
    "optimizer": {
      "enabled": false,
      "runs": 200
    },
    "evmVersion": "petersburg"
  }
}